:1000000002005E706F7320783A20252E32660070F1
:100010006F7320793A20252E326600783A20252EFB
:10002000316400793A20252E316400785F706F7357
:100030003A2025642C20795F706F733A2025642C58
:1000400020627574746F6E3A2025640A00220000E5
:10005000000000000000000000000002014A75815D
:10006000621200CFE58260030200CA780079007A4C
:10007000007B007C007D00EC4D601C88828983E45D
:1000800093A3A882A9838A828B83F0A3AA82AB83DD
:100090001CBCFFE31D80E07582007583007C007D41
:1000A00000EC4D600AE4F0A31CBCFFF51D80F27566
:1000B00082007583007C007D00EC4D600AE4F0A3B3
:1000C0001CBCFFF51D80F212004D1204E480FE7589
:1000D000A7007597DE7597AD43FF8075EF0275A792
:1000E0001075C12075A70075A90075A900E5A93094
:1000F000E7FB75A90375A903E5A930E7FB43A480D5
:10010000E5A575A5FF43A60175E10175E20075E35C
:1001100040759810858E8E758DE6858D8B53890F71
:10012000438920D28ED29975A70075D90075F90040
:1001300075FA0075D90875DA4975FBB375FC03D2F9
:10014000DE43E610D2AF75820022C0E0C002C003D9
:10015000C004C005C0D075D00075A70030D82FAB43
:10016000FC7A00ACFB7D00EC2AFAED3BFB3395E01A
:10017000FCFD74B32AFA74033BFBE43CE43D8A04BF
:100180007D008CFB8B027B008AFCC2D8B287C2DF69
:10019000D0D0D005D004D003D002D0E03275A70073
:1001A000C2EF75B28075BC2075B91E75E80075DFA9
:1001B0003F75B300D2EF22AA828511F005F07401D9
:1001C000800225E0D5F0FBFB75A720BA0002800A6B
:1001D000BA0102800FBA021E8014EBF4FA52F1EB5E
:1001E00042D48012EBF4FA52F2EB42D58008EBF4E1
:1001F000FA52F3EB42CC75A700228582BBC2EDD246
:10020000EC30EDFD85BD8285BE83221201FA120617
:10021000ECAA82AB83ACF0FDC002C003C004C005F1
:1002200090E35475F095744012072CAA82AB83AC0E
:10023000F0FDE58124FCF581E4C0E074FCC0E074CD
:100240007FC0E07446C0E08A828B838CF0ED120997
:1002500000AA82AB83ACF0FDE58124FCF5818A82A3
:100260008B838CF0ED22AA82438E407592B87593F1
:10027000FF8592948593957591047B00C3EB9A500A
:100280000BE59130E7FB53917F0B80F075910022D5
:10029000AA82AB83BA0004BB0001227582F9C002B6
:1002A000C0031202667582F91202667582F91202A3
:1002B000667582FA120266D003D0021ABAFF011BD9
:1002C00080D2D2A0758228120266C2A022AA828A97
:1002D000E0A2E79290A2E69291A2E59292A2E49225
:1002E00093C0021202C2758228120266D0028AE00E
:1002F000A2E39290A2E29291A2E19292A2E0929362
:100300000202C2AA82D2978A821202CD9000020211
:100310000290AA82C2978A821202CD900005020240
:1003200090C2A090001412029075823312031275CD
:10033000823312031275823212031275822812035D
:100340001275820C120312758201120312900014AE
:10035000020290AA82AB83ACF07402B532047DC075
:1003600080027D808D82C002C003C00412031290FF
:100370000005120290D004D003D0027D007E00ED73
:100380002AFFEE3BF88C018F82888389F01206D019
:10039000FF60208F82C002C003C004C005C00612E7
:1003A0000303D006D005D004D003D0020DBD00CF8A
:1003B0000E80CC3000248D028E03C3EA9410EB64CF
:1003C0008094805015758220C002C003120303D0B0
:1003D00003D0020ABA00E30B80E0225389F043897C
:1003E00001C28C22AA82AB83C002C003C033C034D6
:1003F000C035C0367403C0E07400C0E07480C0E053
:100400007422C0E07400C0E07440C0E01208ADE5A2
:100410008124F6F581D003D0028A32D200900022E6
:1004200075F040020353AA82AB83C002C003C037F9
:10043000C038C039C03A740FC0E07400C0E07480A6
:10044000C0E07422C0E07400C0E07440C0E0120854
:10045000ADE58124F6F581D003D0028A32D2009036
:10046000002275F040020353AA82AB83C002C0038E
:10047000C03BC03C741BC0E07400C0E07480C0E0AE
:100480007422C0E07400C0E07440C0E01208ADE522
:100490008124F8F581D003D0028A32D20090002264
:1004A00075F040020353AA82AB83C002C003C03D73
:1004B000C03E7423C0E07400C0E07480C0E07422C9
:1004C000C0E07400C0E07440C0E01208ADE58124D3
:1004D000F8F581D003D0028A32D20090002275F064
:1004E000400203531203DB12032112019D75110612
:1004F0007582021201B77511057582021201B7A249
:10050000A4E433F53F7540007582131201FAAC8202
:10051000AD83758212C004C0051201FAAE82AF83AA
:10052000D005D004C374D29C74AD8DF063F0809577
:10053000F040030205CEEC242EF582ED34D2F58393
:10054000C006C0071208F3A882A983AAF0FBE4C082
:10055000E07468C0E07491C0E07445C0E0888289AE
:10056000838AF0EB120900AA82AB83A8F0F9E58137
:1005700024FCF581C002C003C000C0019048007592
:10058000F037744612072CAA82AB83A8F0F9E581F4
:1005900024FCF581E4C0E07448C0E07437C0E07426
:1005A00046C0E08A828B8388F0E91207CFAA82AB2B
:1005B00083A8F0F9E58124FCF5818A828B8388F099
:1005C000E91206F8AA82AB83D007D00680048C0219
:1005D0008D03C374149E74AE8FF063F08095F04069
:1005E0000302067CEE24ECF582EF34D1F583C002E1
:1005F000C0031208F3AC82AD83A8F0F9E4C0E07444
:1006000058C0E0748FC0E07445C0E08C828D838850
:10061000F0E9120900AC82AD83A8F0F9E58124FC71
:10062000F581C004C005C000C00190500075F038CD
:10063000744612072CAC82AD83A8F0F9E58124FC46
:10064000F581E4C0E07450C0E07438C0E07446C086
:10065000E08C828D8388F0E91207CFAC82AD83A84D
:10066000F0F9E58124FCF5818C828D8388F0E91214
:1006700006F8AC82AD83D003D00280048E048F05CF
:100680008A3B8B3C900001C002C003C004C005122D
:100690000468D005D0048C3D8D3E900002C004C09B
:1006A000051204A6D005D004D003D002C03FC0403C
:1006B000C004C005C002C003742BC0E07400C0E0D9
:1006C0007480C0E012083DE58124F7F5810204FF43
:1006D00020F71430F6148883A88220F507E6A88353
:1006E00075830022E280F7E49322E022E4AC83AB3E
:1006F00082FAF9748E020A28120A32700AE58245DB
:100700008345F0700122E430D112F4700BE5F0F46F
:100710007006E58330E7012290800022700AE5F040
:100720007006E58320E70122907FFF22120B0FBCA9
:100730000003020AAEEF60FA30D502B2D1E583B40D
:10074000FF03020AC4E582B4FF03020AC425834002
:10075000072482400B020AAE2483145003020AC409
:10076000F582EA8DF0A4A8F0EA8EF0A428F8E4352A
:10077000F0F9EB8DF0A428E935F0F9E433CA8FF0F5
:10078000A429F9EA35F0FAEBF88EF0A429F9EA3554
:10079000F0FAE433FBEC8DF0A429F9EA35F0FAE441
:1007A0003BFBE88FF0A42AFAEB35F0FBE433CCFDF9
:1007B0008EF0A42AFAEB35F0FBE43CFCED8FF0A4BC
:1007C0002BFBEC35F0FC20E703120ADC020A8D1249
:1007D0000B0F7900E583B58202800D5003120B3DAB
:1007E000E583C39582120B57E5D0C465D020E1178D
:1007F000EA2DFAEB3EFBEC3FFC50097401120B575B
:10080000EC4480FC020A8DC3EA9DFAEB9EFBEC9F50
:10081000FC500FC3E499F9E49AFAE49BFBE49CFCD6
:10082000B2D1120ADC020A8D02152685824F858319
:100830005085F051851052900828020F79C0088524
:100840008108E50824FBF552E50824FBF8864F08EB
:100850008650088651900828120F79D00822AA8263
:10086000AB09AC0AAD0B8B828C838DF0EA12153B81
:100870000509E4B50902050A2285820985830A85EE
:10088000F00B850C4F850D50850E51850F52900849
:100890005E120F79AA82AB83AC09AD0AAE0B8C82D3
:1008A0008D838EF0E412153B8A828B8322C00885EB
:1008B0008108E50824F8F552E50824FBF8860908C4
:1008C000860A08860BE50824F8F8864F0886500843
:1008D000865190085E120F79AA82AB83AC09AD0AEB
:1008E000AE0B8C828D838EF0E412153B8A828B8353
:1008F000D00822AC83AB827A007900748E02155D39
:10090000120B0F30D502B2D1BF0009BC0003020A9E
:10091000D1020AC4BC0003020AAEE583B4FF0BE5B2
:1009200082B4FF03020AD1020AAEE582B4FF0302D9
:100930000AC4C395835007247F400B020AAE24806B
:10094000145003020AC4C0E0E4CCCBCAF98D118E66
:10095000128F13EF54F0C4F5147583068514F0EB71
:1009600084F582E9C4F9EAC4FAEBC4FBEC540FC481
:100970007803D6FC18EBD6FB18EAD6FA8582F0EDA0
:10098000A4A8F0FD8582F0EEA428FEE435F0F885F9
:1009900082F0EFA428FFE435F0F8E99DF9EA9EFA29
:1009A000EB9FFBEC98FCAD11AE12AF1330E71015C6
:1009B00082E92DF9EA3EFAEB3FFBE43CFC80EDC016
:1009C00082D58398C3E933F9EA33FAEB33FBEC338E
:1009D000FCC3E99DEA9EEB9FEC9400B3E413F9D0CD
:1009E00002D0E0C44AFAD003D0E0C44BFBD004D01C
:1009F000E0F5F0540FC44CFCD082158230F40FD3D4
:100A0000EC13FCEB13FBEA13FAE913F90582E93066
:100A1000E70A74012AFAE43BFBE43CFC020AA5FC69
:100A2000ABF0AA83A982749EC2D1F582120ADC02BD
:100A30000A8D121581C3749E958240397900120B7C
:100A40005730D126E9F42401F582EAF43400F58325
:100A5000EBF43400F5F0ECF43400700AE5824583E1
:100A600045F0700122E430E70F22EC20E714898280
:100A70008A838BF02230D10AE4F582F583F5F07495
:100A8000802274FFF582F583F5F0747F22B980032C
:100A9000EA13B34010EA2401FAE43BFBE43CFC50C7
:100AA000047C800582BC000EBB000BBA0008E4F594
:100AB000F0F583F58222A2D1E582138CF092F78BB8
:100AC000838A8222E4F583F58275F080F4A2D11343
:100AD00022E4F583F58275F0C0747F227804EC700F
:100AE00011E58224F8500AF582E4C9CACBFCD8EF9C
:100AF00022EC7820058220E713D5820122C3E93356
:100B0000F9EA33FAEB33FBEC33FCD8EA158222AA7C
:100B100082AB83A2F73392D16002D2F7F582ACF0B8
:100B2000E58124F9F8E6FD08E6FE0886F008E6A26D
:100B3000F73392D56002D2F7F583AFF022E582C594
:100B400083F582A2D133A2D592D11392D5ECCFFCFA
:100B5000EBCEFBEACDFA226040F82582500274FF0A
:100B6000F582E824F8501ECCCBCAF9E4CC24F85026
:100B700014CBCAF9E4CB24F8500BCAF9E4CA24F820
:100B8000500379002224086010F8C3EC13FCEB1327
:100B9000FBEA13FAE913F9D8F122AA8274ABC0E098
:100BA000740BC0E0C041C0428A82220548E4B548C7
:100BB00002054922AA8274302AFA24C6500A740710
:100BC0002AFA3001034302208A82020B9AE582FA54
:100BD000C4540FF582C002120BB4D002740F5AF540
:100BE00082020BB4AA43AB44AC45AD46AE47754E4A
:100BF00020EE2EFEED235401FF4206EA2AFAEB33E3
:100C0000FBEC33FCED33FDC3EE954A4008EEC39593
:100C10004AFE430201D54ED98A438B448C458D460A
:100C20008E4722785FE624D075F00AA4FA7860E651
:100C300024D02AFA785E8603BB2D04C3E49AFA75A1
:100C40004A01C3E464808AF063F08095F05029750E
:100C50004E038A0374F6254E401C054AE54E1424C3
:100C600053F8E54E2453F98704A604772E1BEBFABC
:100C70006004054E80DE8B02EA30E70D785486036F
:100C80007855A6037854762E0AE54C600AE54C04A4
:100C9000FB254AF54A8005300C02054A7853860345
:100CA000E4BB2D0104FB7006200703300802054A4F
:100CB000300503020D6A300657EB600C75822DC0BB
:100CC00002120B9AD002801C30070C75822BC002D6
:100CD000120B9AD002800D30080A758220C00212D1
:100CE0000B9AD00278548604BC2E0C758230C00258
:100CF000120B9AD002154BAC4B154BC3E54A9C40E6
:100D000003020DAE758230C002120B9AD00280E74A
:100D1000AC4B154BC3E54A9C500C758220C00212A7
:100D20000B9AD00280EA78538604BC2D0C75822D74
:100D3000C002120B9AD002801C30070C75822BC0A7
:100D400002120B9AD002800D30080A758220C00270
:100D5000120B9AD00278548604BC2E52758230C091
:100D600002120B9AD002154B8044EB600E75822D57
:100D7000C002120B9AD002154B802030070E7582EC
:100D80002BC002120B9AD002154B800F30080C7545
:100D90008220C002120B9AD002154B78548603BBF6
:100DA0002E0C758230C002120B9AD002154B754E74
:100DB00001C20EE54E2453F88603BB4503020E6BB9
:100DC000BB2E348A03C3E464808BF063F08095F01B
:100DD000500F758230C003120B9AD0031B8B028018
:100DE000E48B02D20EE54C7038200C03020E6B75BA
:100DF000822E120B9A8074300E278A03EB30E71F85
:100E0000C3E46480854CF063F08095F0500C7582EB
:100E100030C003120B9AD003154C0B8B0280DD8B74
:100E200002300E0EC3E46480854CF063F08095F0D0
:100E30005021E54E2453F886038B82C002120B9A90
:100E4000D002300E0EE54E2453F88603BB2E0280EE
:100E500002154C154BC3E46480854CF063F080951B
:100E6000F04003200E05054E020DB3C3E4648085F7
:100E70004CF063F08095F0500A758230120B9A1591
:100E80004C80E830050FAA4B154BEA6008758220AC
:100E9000120B9A80F122E54C7003300C0D7407257B
:100EA0004CFAE54BC39AF54B8006E54B24FAF54B1B
:100EB000754E0078538602BA2B0F20070C785376B4
:100EC00020200805754E01054B200519AA4BC3E4E7
:100ED00064808AF063F08095F0500A758220120BCE
:100EE0009A154B80E7C20EE54E2453F88602BA00ED
:100EF000028069BA451F3001027665C3E4648085CB
:100F00004CF063F08095F0500A758230120B9A1500
:100F10004C80E8D20EC3E54E9402E433FA7014EA32
:100F2000700EC3E46480854CF063F08095F040035C
:100F3000300E16E54E2453F886028A82120B9AE58B
:100F40004E24FD5012154C800E7402B54E09300C23
:100F50000675822E120B9A054E020EE7300519AA6D
:100F60004BC3E464808AF063F08095F0500A758288
:100F700020120B9A154B80E722858241858342E43B
:100F8000F548F549AA4FAB50AC518A828B838CF05F
:100F90001206D0FD74012AF54FE43BF5508C51ED5B
:100FA000FA700302151FBA25028003021517C20545
:100FB000C206C207C208C209C20AC20BC20CC202E0
:100FC000C203C204754A00754B00754CFFAB4FACB1
:100FD00050AD518B828C838DF01206D0FAA3AB8278
:100FE000AC838B4F8C508D51BA25078A82120B9A95
:100FF00080928A06BE3000402E8A06EE24C6402724
:1010000074FFB54C13E54B75F00AA4FEEA24D02E0C
:10101000F54B70BFD20680BBE54C75F00AA4FEEA22
:1010200024D02EF54C80ACBA2E0A74FFB54CA475B2
:101030004C00809F8A06BE6100400E8A06EE248521
:1010400040075302DFD2018002C201BA200280753C
:10105000BA23030210D4BA2A030210D9BA2B028091
:101060005FBA2D028055BA4202805FBA4303021173
:101070001EBA4403021259BA4503021273BA460358
:1010800002126FBA4703021277BA4903021259BA21
:101090004C02803BBA4E0302127BBA4F030212602D
:1010A000BA50030211F2BA5303021142BA550302B5
:1010B0001265BA580302126A0212A5D205020FD3B2
:1010C000D207020FD3D208020FD3D20A020FD3D213
:1010D0000B020FD3D20C020FD374FFB54C20300A91
:1010E0000BE55214F88852864B020FD3E55224FECA
:1010F000F888528606088607188E4B020FD3300AEE
:101100000BE55214F88852864C020FD3E55224FEA8
:10111000F888528606088607188E4C020FD3300ACC
:101120000AE55214F888528602800FE55224FEF830
:1011300088528603088604188B028A82120B9A0250
:1011400012AAE55224FDF888528603088604088610
:101150000518188B438C448D458B828C838DF0123F
:1011600016B2AB82AC838B4D74FFB54C03854D4CEE
:1011700020051DC3E54D954B5016E54BC3954DF528
:101180004BAB4B154BEB6008758220120B9A80F12C
:101190008543828544838545F01206D0FBFA602999
:1011A000AB4C154CC3E464808BF063F08095F05039
:1011B000188A82120B9AAB43AC44AD450BBB0001BD
:1011C0000C8B438C448D4580C72005030212AAC3B3
:1011D000E54D954B40030212AAE54BC3954DF54BE7
:1011E000AB4B154BEB70030212AA758220120B9ABF
:1011F00080EEE55224FDF8885286030886040886AE
:101200000518188B438C448D45E545FB30E7047A7F
:10121000438013EB546060047A50800AEB30E6049C
:101220007A4980027A588A82C002120B9A75823AF1
:10123000120B9A758230120B9A758278120B9AD023
:1012400002BA4902800BBA50028006854482120B12
:10125000CD854382120BCD8051D209754A0A804A4E
:10126000754A088045754A0A8040754A10803BD20D
:10127000028037D2038033D204802FE55224FDF858
:101280008852860308860408860518188B438C4408
:101290008D458B828C838DF0E54812153BA3E54983
:1012A00012153B80058A82120B9A20020620030346
:1012B000300470E55224FCF888528603088604083E
:1012C00086050886061818188B438C448D458E4673
:1012D000E543E544E545E5468B828C838DF0EE12CF
:1012E000159374FFB54C03754C06300427747F5575
:1012F00046FB8B47E547EB2BFB8B47E54530E70685
:1013000074014547F547E547246840067499254729
:101310004002D203300306120E96020F84120C23F1
:10132000020F84E54A7003020F847B58300A2BE5D4
:101330005214F88852E6FC3395E0FDFEFF8C438D95
:10134000448E458F4620095EAC437D007E007F00C1
:101350008C438D448E458F46804C300B1FE55224C4
:10136000FCF8885286040886050886060886071851
:1013700018188C438D448E458F46802AE55224FEF2
:10138000F88852860408860518ED3395E0FEFF8C38
:10139000438D448E458F4620090CAC43AD447E00FE
:1013A0007F008E458F46300C43E543454445454517
:1013B0004660397408B54A0C758230C003120B9A26
:1013C000D00380287410B54A23758230C003120BF5
:1013D0009AD00330010C758278C003120B9AD003A7
:1013E000800A758258C003120B9AD003300925ACCD
:1013F00043AD44AE45E546FF30E717C3E49CFCE44B
:101400009DFDE49EFEE49FFF8C438D448E458F46F8
:101410008002C209754D00D20D8B00754700C000D7
:10142000120BE4D000200D0DE547C4FCE6FD4CF6A0
:101430001888038002A647054DB20DE54345444593
:1014400045454670D68803E54B7003754B01200671
:101450001A200517E54D04FCC3954B500E758220EC
:10146000C003120B9AD003154B80E930090E758228
:101470002DC003120B9AD003154B8024E54D60203C
:1014800030070E75822BC003120B9AD003154B80C8
:101490000F30080C758220C003120B9AD003154B35
:1014A00020051EAC4B154BC3E54D9C502730060460
:1014B0007C3080027C208C82C003120B9AD0038087
:1014C000E2C3E54D954B5009E54BC3954DF54B8077
:1014D00003754B008B00AB4D154DEB6022B20D2018
:1014E0000D0A08E6C4540FFB8B4780078603740F70
:1014F0005BF547854782C000120BB4D00080D7202F
:101500000503020F84AB4B154BEB7003020F847580
:101510008220120B9A80EE8A82120B9A020F848527
:10152000488285498322AA82BA0A0810990280FB60
:1015300075990D10990280FB8A992220F71030F6D8
:10154000118883A88220F507F6A88375830022F20C
:1015500080F7F022FCABF0AA83A982749EF582C2C8
:10156000D1EC30E716D2D1E9F42401F9EAF43400E1
:10157000FAEBF43400FBECF43400FC120ADC020A4F
:101580008DAA82AB83A2F73392D16002D2F7F582A3
:10159000ACF022C0E0F84582458345F07009F5F0D3
:1015A000FBFCFDFE021661E823A2F792E0F8A98297
:1015B000AA83D2F7ABF07C007E07C37497984040B3
:1015C00074FF2EFE740A89F0A4F985F082740A8AE9
:1015D000F0A4FA85F083740A8BF0A4FB740529F952
:1015E000EA3582FAEB3583FB740035F0FCC3EC136B
:1015F000FCEB13FBEA13FAE913F908EC70EF80BA7D
:10160000E8C3947FF88B838EF0E4FBFCFDFEFF08BB
:10161000C3E933F9EA33FAE58333F583EB3BD4FBD3
:10162000EC3CD4FCED3DD4FDEE3ED4FEEF3FD4FFC8
:10163000602D05F074052BD4FBE43CD4FCE43DD4D0
:10164000FDE43ED4FEE43FD4FF758204C3EF13FFF4
:10165000EE13FEED13FDEC13FCEB13FBD582EDD87E
:10166000AF7853D0E020E704762B8002762D0879FE
:1016700006E7C4540F4430F608B90603762E08E78F
:10168000540F4430F60819B902E7764508E5F02012
:10169000E704762B8004762DF4040875F00A844460
:1016A00030F608E5F04430F608E4F690005375F0A3
:1016B0004022AA82AB83ACF07D007E008A828B83BD
:1016C0008CF01206D0FFA3AA82AB83EF60070DBD9A
:1016D00000EA0E80E78D828E832200000000000069
:00000001FF
