:1000000002005E706F7320783A20252E32660070F1
:100010006F7320793A20252E326600783A20252EFB
:10002000316400793A20252E316400785F706F7357
:100030003A2025642C20795F706F733A2025642C58
:1000400020627574746F6E3A2025640A00E4F532FC
:10005000F533753408E4F5352200000204EB7581B0
:10006000691200CFE58260030200CA780079007A45
:10007000007B007C007D00EC4D601C88828983E45D
:1000800093A3A882A9838A828B83F0A3AA82AB83DD
:100090001CBCFFE31D80E07582007583007C007D41
:1000A00000EC4D600AE4F0A31CBCFFF51D80F27566
:1000B00082007583007C007D00EC4D600AE4F0A3B3
:1000C0001CBCFFF51D80F212004D1207D380FE7597
:1000D000A7007597DE7597AD43FF8075EF0275A792
:1000E0001075C12075A70075A90075A900E5A93094
:1000F000E7FB75A90375A903E5A930E7FB43A480D5
:10010000E5A575A5FF43A60175E10175E20075E35C
:1001100040759810858E8E758DE6858D8B53890F71
:10012000438920D28ED29975A70075D90075F90040
:1001300075FA0075D90875DA4975FBB375FC03D2F9
:10014000DE43E610D2AF7582002275A700C2EF75BC
:10015000B28075BC2075B91E75E80075DF3F75B3B8
:1001600000D2EF22AA828511F005F07401800225E9
:10017000E0D5F0FBFB75A720BA0002800ABA0102A5
:10018000800FBA021E8014EBF4FA52F1EB42D480D5
:1001900012EBF4FA52F2EB42D58008EBF4FA52F388
:1001A000EB42CC75A700228582BBC2EDD2EC30EDCC
:1001B000FD85BD8285BE83221201A7120A8FAA8205
:1001C000AB83ACF0FDC002C003C004C00590E35493
:1001D00075F0957440120ACFAA82AB83ACF0FDE5AE
:1001E0008124FCF581E4C0E074FCC0E0747FC0E0D1
:1001F0007446C0E08A828B838CF0ED120CA3AA8235
:10020000AB83ACF0FDE58124FCF5818A828B838C85
:10021000F0ED22AA82438E407592B87593FF8592C5
:10022000948593957591047B00C3EB9A500BE591EF
:1002300030E7FB53917F0B80F075910022AA82ABCF
:1002400083BA0004BB0001227582F9C002C0031208
:1002500002137582F91202137582F9120213758264
:10026000FA120213D003D0021ABAFF011B80D2D2B5
:10027000A0758228120213C2A022AA828AE0A2E7F5
:100280009290A2E69291A2E59292A2E49293C00289
:1002900012026F758228120213D0028AE0A2E39242
:1002A00090A2E29291A2E19292A2E0929302026F56
:1002B000AA82D2978A8212027A90000202023DAA92
:1002C00082C2978A8212027A90000502023DC2A081
:1002D00090001412023D7582331202BF75823312F0
:1002E00002BF7582321202BF7582281202BF758268
:1002F0000C1202BF7582011202BF90001402023D6F
:10030000AA82AB83ACF07402B536047DC080027D56
:10031000808D82C002C003C0041202BF900005128B
:10032000023DD004D003D0027D007E00ED2AFFEE16
:100330003BF88C018F82888389F0120A73FF60205A
:100340008F82C002C003C004C005C0061202B0D034
:1003500006D005D004D003D0020DBD00CF0E80CC56
:100360003000248D028E03C3EA9410EB64809480E5
:100370005015758220C002C0031202B0D003D00213
:100380000ABA00E30B80E0225389F0438901C28C52
:1003900022AA82AB83C002C003C037C038C039C0B4
:1003A0003A7403C0E07400C0E07480C0E07422C0FE
:1003B000E07400C0E07440C0E0120C50E58124F607
:1003C000F581D003D0028A36D20090002275F04029
:1003D000020300AA82AB83C002C003C03BC03CC082
:1003E0003DC03E740FC0E07400C0E07480C0E07493
:1003F00022C0E07400C0E07440C0E0120C50E581FF
:1004000024F6F581D003D0028A36D20090002275FE
:10041000F040020300AA82AB83C002C003C03FC009
:1004200040741BC0E07400C0E07480C0E07422C05F
:10043000E07400C0E07440C0E0120C50E58124F884
:10044000F581D003D0028A36D20090002275F040A8
:10045000020300AA82AB83C002C003C041C0427441
:1004600023C0E07400C0E07480C0E07422C0E07477
:1004700000C0E07440C0E0120C50E58124F8F58122
:10048000D003D0028A36D20090002275F0400203D9
:1004900000120C96AA82AB83ACF0FDC002C003C070
:1004A00004C00590000075F07F7443120ACFAA8241
:1004B000AB83ACF0FDE58124FCF581E4C0E074FF82
:1004C000C0E0747FC0E07447C0E08A828B838CF008
:1004D000ED120CA3AA82AB83ACF0FDE58124FCF500
:1004E000818A828B838CF0ED020A9BC0E0C002C03F
:1004F00003C004C005C0D075D00075A70030D84037
:10050000ABFC7A00ACFB7D00EC2AFAED3BFB3395AB
:10051000E0FCFD74B32AFA74033BFBE43CE43D8A3F
:10052000047D008CFB8B027B008AFCC2D87401B571
:100530003206E4B5330280028004B2878002C287AB
:10054000C2DFD0D0D005D004D003D002D0E032AA90
:1005500082AB83EA4B70030206287A007B00C3EA71
:100560009403EB648094805062753201E4F5337536
:100570008230C002C003120213758230120213755A
:100580008230120213758230120213E4F532F53311
:100590007582301202137582301202137582301286
:1005A00002137582301202137582301202137582A3
:1005B0003012021375823012021375823012021348
:1005C000D003D0020ABA00960B80937A007B00C356
:1005D000EA9402EB64809480504A753201E4F5336A
:1005E000758230C002C003120213758230120213EA
:1005F000758230120213758230120213E4F532F55F
:1006000033758230120213758230120213758230F4
:10061000120213758230120213D003D0020ABA00FC
:10062000AE0B80AB9000002290FFFF22AA82AB832A
:10063000EA4B70030207057A007B00C3EA9401EBE2
:10064000648094805062753201E4F533758230C065
:1006500002C0031202137582301202137582301227
:100660000213758230120213E4F532F533758230CD
:100670001202137582301202137582301202137542
:100680008230120213758230120213758230120208
:1006900013758230120213758230120213D003D008
:1006A000020ABA00960B80937A007B00C3EA940496
:1006B000EB64809480504A753201E4F533758230E2
:1006C000C002C00312021375823012021375823009
:1006D000120213758230120213E4F532F53375827B
:1006E0003012021375823012021375823012021317
:1006F000758230120213D003D0020ABA00AE0B800A
:10070000AB9000002290FFFF22AA827B077C00ECC6
:1007100030E701228BF005F0EA8002C313D5F0FB2D
:1007200030E061753201E4F533758230C002C003F8
:10073000C004120213758230120213758230120245
:1007400013758230120213E4F532F53375823012DC
:1007500002137582301202137582301202137582F1
:100760003012021375823012021375823012021396
:10077000758230120213758230120213D004D00336
:10078000D0028047753201E4F533758230C002C073
:1007900003C00412021375823012021375823012E4
:1007A0000213758230120213E4F532F5337582308C
:1007B0001202137582301202137582301202137501
:1007C0008230120213D004D003D0021BBBFF011CE5
:1007D00002070F1203881202CE12014A7511027528
:1007E0008202120164751103758202120164A2A4CF
:1007F000E433F5437544007582101201A7AC82AD55
:100800008375820FC004C0051201A7AE82AF83D0EA
:1008100005D004C374D29C74AD8DF063F08095F064
:1008200040030208BFEC242EF582ED34D2F583C0DC
:1008300006C007120C96A882A983AAF0FBE4C0E0C8
:100840007468C0E07491C0E07445C0E08882898318
:100850008AF0EB120CA3AA82AB83A8F0F9E58124FD
:10086000FCF581C002C003C000C00190480075F0D3
:10087000377446120ACFAA82AB83A8F0F9E5812427
:10088000FCF581E4C0E07448C0E07437C0E0744611
:10089000C0E08A828B8388F0E9120B72AA82AB8354
:1008A000A8F0F9E58124FCF5818A828B8388F0E940
:1008B000120A9B858245858346D007D00680048C2A
:1008C000458D46C374149E74AE8FF063F08095F02E
:1008D0004003020965EE24ECF582EF34D1F5831272
:1008E0000C96A882A983AAF0FBE4C0E07458C0E08B
:1008F000748FC0E07445C0E0888289838AF0EB126F
:100900000CA3AA82AB83A8F0F9E58124FCF581C091
:1009100002C003C000C00190500075F03874461248
:100920000ACFAA82AB83A8F0F9E58124FCF581E423
:10093000C0E07450C0E07438C0E07446C0E08A8201
:100940008B8388F0E9120B72AA82AB83A8F0F9E5D9
:100950008124FCF5818A828B8388F0E9120A9BAAA4
:1009600082AB8380048E028F03854582854683C0D7
:1009700002C003120491A882D003D00288478A8261
:100980008B83C002C003120491A982900001C001B0
:1009900012054F854782120709D001898212070983
:1009A00090000112062C753201E4F5337582301285
:1009B000021375823012021375823012021375828F
:1009C0003012021375823012021375823012021334
:1009D0007582301202137582301202137582301242
:1009E0000213758230120213E4F532F5339000647D
:1009F00012023D85453F854640900001120415D006
:100A000003D0028A418B42900002C002C00312044C
:100A100053D003D002C043C044C002C003C045C08D
:100A200046742BC0E07400C0E07480C0E0120BE09C
:100A3000E58124F7F5817582131201B8120A9B1221
:100A40000C9685823785833885F039F53A90000118
:100A50001203917582121201B8120A9B120C96852C
:100A6000823B85833C85F03DF53E9000021203D326
:100A70000207EE20F71430F6148883A88220F507C9
:100A8000E6A88375830022E280F7E49322E022E463
:100A9000AC83AB82FAF9748E020DCB120DD5700ABD
:100AA000E582458345F0700122E430D112F4700BE9
:100AB000E5F0F47006E58330E701229080002270B3
:100AC0000AE5F07006E58320E70122907FFF2212FD
:100AD0000EB2BC0003020E51EF60FA30D502B2D163
:100AE000E583B4FF03020E67E582B4FF03020E67DD
:100AF000258340072482400B020E512483145003A7
:100B0000020E67F582EA8DF0A4A8F0EA8EF0A42820
:100B1000F8E435F0F9EB8DF0A428E935F0F9E43389
:100B2000CA8FF0A429F9EA35F0FAEBF88EF0A4297F
:100B3000F9EA35F0FAE433FBEC8DF0A429F9EA3553
:100B4000F0FAE43BFBE88FF0A42AFAEB35F0FBE483
:100B500033CCFD8EF0A42AFAEB35F0FBE43CFCED3F
:100B60008FF0A42BFBEC35F0FC20E703120E7F0284
:100B70000E30120EB27900E583B58202800D50036B
:100B8000120EE0E583C39582120EFAE5D0C465D05B
:100B900020E117EA2DFAEB3EFBEC3FFC5009740113
:100BA000120EFAEC4480FC020E30C3EA9DFAEB9E72
:100BB000FBEC9FFC500FC3E499F9E49AFAE49BFB29
:100BC000E49CFCB2D1120E7F020E300218C985825D
:100BD0005685835785F058851059900BCB02131C0E
:100BE000C008858108E50824FBF559E50824FBF8D1
:100BF0008656088657088658900BCB12131CD008CF
:100C000022AA82AB09AC0AAD0B8B828C838DF0EAF1
:100C10001218DE0509E4B50902050A228582098554
:100C2000830A85F00B850C56850D57850E58850F68
:100C300059900C0112131CAA82AB83AC09AD0AAE09
:100C40000B8C828D838EF0E41218DE8A828B8322D5
:100C5000C008858108E50824F8F559E50824FBF863
:100C6000860908860A08860BE50824F8F8865608DF
:100C70008657088658900C0112131CAA82AB83ACCD
:100C800009AD0AAE0B8C828D838EF0E41218DE8AD9
:100C9000828B83D00822AC83AB827A007900748E79
:100CA000021900120EB230D502B2D1BF0009BC0049
:100CB00003020E74020E67BC0003020E51E583B4FA
:100CC000FF0BE582B4FF03020E74020E51E582B4FD
:100CD000FF03020E67C395835007247F400B020E6B
:100CE000512480145003020E67C0E0E4CCCBCAF953
:100CF0008D118E128F13EF54F0C4F5147583068591
:100D000014F0EB84F582E9C4F9EAC4FAEBC4FBEC15
:100D1000540FC47803D6FC18EBD6FB18EAD6FA8534
:100D200082F0EDA4A8F0FD8582F0EEA428FEE43563
:100D3000F0F88582F0EFA428FFE435F0F8E99DF99A
:100D4000EA9EFAEB9FFBEC98FCAD11AE12AF1330AC
:100D5000E7101582E92DF9EA3EFAEB3FFBE43CFC93
:100D600080EDC082D58398C3E933F9EA33FAEB33D7
:100D7000FBEC33FCC3E99DEA9EEB9FEC9400B3E4EB
:100D800013F9D002D0E0C44AFAD003D0E0C44BFB40
:100D9000D004D0E0F5F0540FC44CFCD08215823062
:100DA000F40FD3EC13FCEB13FBEA13FAE913F90588
:100DB00082E930E70A74012AFAE43BFBE43CFC02D6
:100DC0000E48FCABF0AA83A982749EC2D1F58212B0
:100DD0000E7F020E30121924C3749E958240397919
:100DE00000120EFA30D126E9F42401F582EAF43437
:100DF00000F583EBF43400F5F0ECF43400700AE510
:100E000082458345F0700122E430E70F22EC20E7B1
:100E10001489828A838BF02230D10AE4F582F5832B
:100E2000F5F074802274FFF582F583F5F0747F226B
:100E3000B98003EA13B34010EA2401FAE43BFBE46F
:100E40003CFC50047C800582BC000EBB000BBA0049
:100E500008E4F5F0F583F58222A2D1E582138CF047
:100E600092F78B838A8222E4F583F58275F080F411
:100E7000A2D11322E4F583F58275F0C0747F227845
:100E800004EC7011E58224F8500AF582E4C9CACB5B
:100E9000FCD8EF22EC7820058220E713D5820122CE
:100EA000C3E933F9EA33FAEB33FBEC33FCD8EA1548
:100EB0008222AA82AB83A2F73392D16002D2F7F5E5
:100EC00082ACF0E58124F9F8E6FD08E6FE0886F03C
:100ED00008E6A2F73392D56002D2F7F583AFF0228D
:100EE000E582C583F582A2D133A2D592D11392D5E2
:100EF000ECCFFCEBCEFBEACDFA226040F825825025
:100F00000274FFF582E824F8501ECCCBCAF9E4CC79
:100F100024F85014CBCAF9E4CB24F8500BCAF9E4F6
:100F2000CA24F8500379002224086010F8C3EC1397
:100F3000FCEB13FBEA13FAE913F9D8F122AA827445
:100F40004EC0E0740FC0E0C048C0498A8222054FFD
:100F5000E4B54F02055022AA8274302AFA24C65002
:100F60000A74072AFA3001034302208A82020F3DE5
:100F7000E582FAC4540FF582C002120F57D00274F2
:100F80000F5AF582020F57AA4AAB4BAC4CAD4DAE8F
:100F90004E755520EE2EFEED235401FF4206EA2A3F
:100FA000FAEB33FBEC33FCED33FDC3EE9551400817
:100FB000EEC39551FE430201D555D98A4A8B4B8C1D
:100FC0004C8D4D8E4E227866E624D075F00AA4FA38
:100FD0007867E624D02AFA78658603BB2D04C3E43B
:100FE0009AFA755101C3E464808AF063F08095F049
:100FF00050297555038A0374F62555401C0551E5A3
:101000005514245AF8E555245AF98704A604772E76
:101010001BEBFA6004055580DE8B02EA30E70D78A1
:101020005B8603785CA603785B762E0AE553600A3C
:10103000E55304FB2551F5518005300C020551782C
:101040005A8603E4BB2D0104FB7006200703300819
:1010500002055130050302110D300657EB600C7587
:10106000822DC002120F3DD002801C30070C758209
:101070002BC002120F3DD002800D30080A7582206D
:10108000C002120F3DD002785B8604BC2E0C758224
:1010900030C002120F3DD0021552AC521552C3E5BA
:1010A000519C4003021151758230C002120F3DD095
:1010B0000280E7AC521552C3E5519C500C7582205A
:1010C000C002120F3DD00280EA785A8604BC2D0C73
:1010D00075822DC002120F3DD002801C30070C75A6
:1010E000822BC002120F3DD002800D30080A75829B
:1010F00020C002120F3DD002785B8604BC2E5275D0
:101100008230C002120F3DD00215528044EB600EB7
:1011100075822DC002120F3DD0021552802030077B
:101120000E75822BC002120F3DD0021552800F3077
:10113000080C758220C002120F3DD0021552785B58
:101140008603BB2E0C758230C002120F3DD00215F3
:1011500052755501C20EE555245AF88603BB450366
:1011600002120EBB2E348A03C3E464808BF063F05A
:101170008095F0500F758230C003120F3DD0031BD5
:101180008B0280E48B02D20EE5537038200C0302F0
:10119000120E75822E120F3D8074300E278A03EBDB
:1011A00030E71FC3E464808553F063F08095F0500E
:1011B0000C758230C003120F3DD00315530B8B0208
:1011C00080DD8B02300E0EC3E464808553F063F043
:1011D0008095F05021E555245AF886038B82C00291
:1011E000120F3DD002300E0EE555245AF88603BB8F
:1011F0002E02800215531552C3E464808553F063B8
:10120000F08095F04003200E050555021156C3E409
:1012100064808553F063F08095F0500A7582301237
:101220000F3D155380E830050FAA521552EA6008A9
:10123000758220120F3D80F122E5537003300C0DB2
:1012400074072553FAE552C39AF5528006E55224F5
:10125000FAF552755500785A8602BA2B0F20070C02
:10126000785A76202008057555010552200519AADF
:1012700052C3E464808AF063F08095F0500A75826E
:1012800020120F3D155280E7C20EE555245AF8860C
:1012900002BA00028069BA451F3001027665C3E4D4
:1012A00064808553F063F08095F0500A75823012A7
:1012B0000F3D155380E8D20EC3E5559402E433FA8E
:1012C0007014EA700EC3E464808553F063F0809577
:1012D000F04003300E16E555245AF886028A821231
:1012E0000F3DE55524FD50121553800E7402B5557F
:1012F00009300C0675822E120F3D055502128A30F8
:101300000519AA52C3E464808AF063F08095F05016
:101310000A758220120F3D155280E722858248858A
:101320008349E4F54FF550AA56AB57AC588A828BE7
:10133000838CF0120A73FD74012AF556E43BF557CD
:101340008C58EDFA70030218C2BA25028003021805
:10135000BAC205C206C207C208C209C20AC20BC28B
:101360000CC202C203C2047551007552007553FFCE
:10137000AB56AC57AD588B828C838DF0120A73FA42
:10138000A3AB82AC838B568C578D58BA25078A82C3
:10139000120F3D80928A06BE3000402E8A06EE244F
:1013A000C6402774FFB55313E55275F00AA4FEEA50
:1013B00024D02EF55270BFD20680BBE55375F00ADB
:1013C000A4FEEA24D02EF55380ACBA2E0A74FFB5E1
:1013D00053A4755300809F8A06BE6100400E8A06A2
:1013E000EE248540075302DFD2018002C201BA20F9
:1013F000028075BA2303021477BA2A0302147CBA56
:101400002B02805FBA2D028055BA4202805FBA4338
:10141000030214C1BA44030215FCBA4503021616AE
:10142000BA4603021612BA470302161ABA49030251
:1014300015FCBA4C02803BBA4E0302161EBA4F038B
:10144000021603BA5003021595BA53030214E5BA03
:101450005503021608BA580302160D021648D205A3
:10146000021376D207021376D208021376D20A024A
:101470001376D20B021376D20C02137674FFB55397
:1014800020300A0BE55914F888598652021376E584
:101490005924FEF888598606088607188E520213CA
:1014A00076300A0BE55914F888598653021376E50D
:1014B0005924FEF888598606088607188E530213A9
:1014C00076300A0AE55914F888598602800FE559E2
:1014D00024FEF888598603088604188B028A821233
:1014E0000F3D02164DE55924FDF8885986030886FC
:1014F0000408860518188B4A8C4B8D4C8B828C8384
:101500008DF0121A55AB82AC838B5474FFB5530324
:1015100085545320051DC3E55495525016E552C31A
:101520009554F552AB521552EB6008758220120F9C
:101530003D80F1854A82854B83854CF0120A73FB0E
:10154000FA6029AB531553C3E464808BF063F080D9
:1015500095F050188A82120F3DAB4AAC4BAD4C0B44
:10156000BB00010C8B4A8C4B8D4C80C720050302BD
:10157000164DC3E5549552400302164DE552C395EE
:1015800054F552AB521552EB700302164D75822082
:10159000120F3D80EEE55924FDF888598603088630
:1015A0000408860518188B4A8C4B8D4CE54CFB3093
:1015B000E7047A438013EB546060047A50800AEBAE
:1015C00030E6047A4980027A588A82C002120F3DBE
:1015D00075823A120F3D758230120F3D7582781276
:1015E0000F3DD002BA4902800BBA50028006854BEB
:1015F00082120F70854A82120F708051D209755184
:101600000A804A755108804575510A80407551100D
:10161000803BD2028037D2038033D204802FE55939
:1016200024FDF88859860308860408860518188B57
:101630004A8C4B8D4C8B828C838DF0E54F1218DEDB
:10164000A3E5501218DE80058A82120F3D200206A3
:10165000200303300470E55924FCF88859860308F8
:1016600086040886050886061818188B4A8C4B8D48
:101670004C8E4DE54AE54BE54CE54D8B828C838DD8
:10168000F0EE12193674FFB5530375530630042774
:10169000747F554DFB8B4EE54EEB2BFB8B4EE54C93
:1016A00030E7067401454EF54EE54E246840067459
:1016B00099254E4002D20330030612123902132735
:1016C000120FC6021327E55170030213277B5F3008
:1016D0000A2BE55914F88859E6FC3395E0FDFEFF26
:1016E0008C4A8D4B8E4C8F4D20095EAC4A7D007E1E
:1016F000007F008C4A8D4B8E4C8F4D804C300B1FE1
:10170000E55924FCF88859860408860508860608E9
:1017100086071818188C4A8D4B8E4C8F4D802AE501
:101720005924FEF88859860408860518ED3395E09B
:10173000FEFF8C4A8D4B8E4C8F4D20090CAC4AAD70
:101740004B7E007F008E4C8F4D300C43E54A454B5D
:10175000454C454D60397408B5510C758230C00355
:10176000120F3DD00380287410B55123758230C00C
:1017700003120F3DD00330010C758278C003120FA5
:101780003DD003800A758258C003120F3DD003304C
:101790000925AC4AAD4BAE4CE54DFF30E717C3E42D
:1017A0009CFCE49DFDE49EFEE49FFF8C4A8D4B8EE5
:1017B0004C8F4D8002C209755400D20D8B00754EBE
:1017C00000C000120F87D000200D0DE54EC4FCE6CE
:1017D000FD4CF61888038002A64E0554B20DE54A6A
:1017E000454B454C454D70D68803E5527003755204
:1017F0000120061A200517E55404FCC39552500E2B
:10180000758220C003120F3DD003155280E93009C4
:101810000E75822DC003120F3DD00315528024E5B2
:1018200054602030070E75822BC003120F3DD00389
:101830001552800F30080C758220C003120F3DD066
:1018400003155220051EAC521552C3E5549C502777
:101850003006047C3080027C208C82C003120F3D55
:10186000D00380E2C3E55495525009E552C3955424
:10187000F55280037552008B00AB541554EB602277
:10188000B20D200D0A08E6C4540FFB8B4E8007866C
:1018900003740F5BF54E854E82C000120F57D000C7
:1018A00080D7200503021327AB521552EB700302B9
:1018B0001327758220120F3D80EE8A82120F3D029F
:1018C0001327854F8285508322AA82BA0A0810996D
:1018D0000280FB75990D10990280FB8A992220F7EE
:1018E0001030F6118883A88220F507F6A883758347
:1018F0000022F280F7F022FCABF0AA83A982749E4A
:10190000F582C2D1EC30E716D2D1E9F42401F9EA2C
:10191000F43400FAEBF43400FBECF43400FC120E67
:101920007F020E30AA82AB83A2F73392D16002D23B
:10193000F7F582ACF022C0E0F84582458345F070AF
:1019400009F5F0FBFCFDFE021A04E823A2F792E081
:10195000F8A982AA83D2F7ABF07C007E07C3749704
:1019600098404074FF2EFE740A89F0A4F985F08235
:10197000740A8AF0A4FA85F083740A8BF0A4FB74CD
:101980000529F9EA3582FAEB3583FB740035F0FC62
:10199000C3EC13FCEB13FBEA13FAE913F908EC7040
:1019A000EF80BAE8C3947FF88B838EF0E4FBFCFDF4
:1019B000FEFF08C3E933F9EA33FAE58333F583EB35
:1019C0003BD4FBEC3CD4FCED3DD4FDEE3ED4FEEF2D
:1019D0003FD4FF602D05F074052BD4FBE43CD4FC10
:1019E000E43DD4FDE43ED4FEE43FD4FF758204C35D
:1019F000EF13FFEE13FEED13FDEC13FCEB13FBD521
:101A000082EDD8AF785AD0E020E704762B800276BA
:101A10002D087906E7C4540F4430F608B90603765A
:101A20002E08E7540F4430F60819B902E776450846
:101A3000E5F020E704762B8004762DF4040875F099
:101A40000A844430F608E5F04430F608E4F69000E5
:101A50005A75F04022AA82AB83ACF07D007E008AEA
:101A6000828B838CF0120A73FFA3AA82AB83EF6090
:101A7000070DBD00EA0E80E78D828E8322000000F4
:00000001FF
