:1000000002005E706F7320783A20252E32660070F1
:100010006F7320793A20252E326600783A20252EFB
:10002000316400793A20252E316400785F706F7357
:100030003A2025642C20795F706F733A2025642C58
:1000400020627574746F6E3A2025640A00E4F532FC
:10005000F533753408E4F5352200000204EB7581B0
:10006000691200CFE58260030200CA780079007A45
:10007000007B007C007D00EC4D601C88828983E45D
:1000800093A3A882A9838A828B83F0A3AA82AB83DD
:100090001CBCFFE31D80E07582007583007C007D41
:1000A00000EC4D600AE4F0A31CBCFFF51D80F27566
:1000B00082007583007C007D00EC4D600AE4F0A3B3
:1000C0001CBCFFF51D80F212004D1207D380FE7597
:1000D000A7007597DE7597AD43FF8075EF0275A792
:1000E0001075C12075A70075A90075A900E5A93094
:1000F000E7FB75A90375A903E5A930E7FB43A480D5
:10010000E5A575A5FF43A60175E10175E20075E35C
:1001100040759810858E8E758DE6858D8B53890F71
:10012000438920D28ED29975A70075D90075F90040
:1001300075FA0075D90875DA4975FBB375FC03D2F9
:10014000DE43E610D2AF7582002275A700C2EF75BC
:10015000B28075BC2075B91E75E80075DF3F75B3B8
:1001600000D2EF22AA828511F005F07401800225E9
:10017000E0D5F0FBFB75A720BA0002800ABA0102A5
:10018000800FBA021E8014EBF4FA52F1EB42D480D5
:1001900012EBF4FA52F2EB42D58008EBF4FA52F388
:1001A000EB42CC75A700228582BBC2EDD2EC30EDCC
:1001B000FD85BD8285BE83221201A7120AA2AA82F2
:1001C000AB83ACF0FDC002C003C004C00590E35493
:1001D00075F0957440120AE2AA82AB83ACF0FDE59B
:1001E0008124FCF581E4C0E074FCC0E0747FC0E0D1
:1001F0007446C0E08A828B838CF0ED120CB6AA8222
:10020000AB83ACF0FDE58124FCF5818A828B838C85
:10021000F0ED22AA82438E407592B87593FF8592C5
:10022000948593957591047B00C3EB9A500BE591EF
:1002300030E7FB53917F0B80F075910022AA82ABCF
:1002400083BA0004BB0001227582F9C002C0031208
:1002500002137582F91202137582F9120213758264
:10026000FA120213D003D0021ABAFF011B80D2D2B5
:10027000A0758228120213C2A022AA828AE0A2E7F5
:100280009290A2E69291A2E59292A2E49293C00289
:1002900012026F758228120213D0028AE0A2E39242
:1002A00090A2E29291A2E19292A2E0929302026F56
:1002B000AA82D2978A8212027A90000202023DAA92
:1002C00082C2978A8212027A90000502023DC2A081
:1002D00090001412023D7582331202BF75823312F0
:1002E00002BF7582321202BF7582281202BF758268
:1002F0000C1202BF7582011202BF90001402023D6F
:10030000AA82AB83ACF07402B536047DC080027D56
:10031000808D82C002C003C0041202BF900005128B
:10032000023DD004D003D0027D007E00ED2AFFEE16
:100330003BF88C018F82888389F0120A86FF602047
:100340008F82C002C003C004C005C0061202B0D034
:1003500006D005D004D003D0020DBD00CF0E80CC56
:100360003000248D028E03C3EA9410EB64809480E5
:100370005015758220C002C0031202B0D003D00213
:100380000ABA00E30B80E0225389F0438901C28C52
:1003900022AA82AB83C002C003C037C038C039C0B4
:1003A0003A7403C0E07400C0E07480C0E07422C0FE
:1003B000E07400C0E07440C0E0120C63E58124F6F4
:1003C000F581D003D0028A36D20090002275F04029
:1003D000020300AA82AB83C002C003C03BC03CC082
:1003E0003DC03E740FC0E07400C0E07480C0E07493
:1003F00022C0E07400C0E07440C0E0120C63E581EC
:1004000024F6F581D003D0028A36D20090002275FE
:10041000F040020300AA82AB83C002C003C03FC009
:1004200040741BC0E07400C0E07480C0E07422C05F
:10043000E07400C0E07440C0E0120C63E58124F871
:10044000F581D003D0028A36D20090002275F040A8
:10045000020300AA82AB83C002C003C041C0427441
:1004600023C0E07400C0E07480C0E07422C0E07477
:1004700000C0E07440C0E0120C63E58124F8F5810F
:10048000D003D0028A36D20090002275F0400203D9
:1004900000120CA9AA82AB83ACF0FDC002C003C05D
:1004A00004C00590000075F07F7443120AE2AA822E
:1004B000AB83ACF0FDE58124FCF581E4C0E074FC85
:1004C000C0E0747FC0E07446C0E08A828B838CF009
:1004D000ED120CB6AA82AB83ACF0FDE58124FCF5ED
:1004E000818A828B838CF0ED020AAEC0E0C002C02C
:1004F00003C004C005C0D075D00075A70030D84037
:10050000ABFC7A00ACFB7D00EC2AFAED3BFB3395AB
:10051000E0FCFD74B32AFA74033BFBE43CE43D8A3F
:10052000047D008CFB8B027B008AFCC2D87401B571
:100530003206E4B5330280028004B2878002C287AB
:10054000C2DFD0D0D005D004D003D002D0E032AA90
:1005500082AB83EA4B70030206287A007B00C3EA71
:100560009403EB648094805062753201E4F5337536
:100570008230C002C003120213758230120213755A
:100580008230120213758230120213E4F532F53311
:100590007582301202137582301202137582301286
:1005A00002137582301202137582301202137582A3
:1005B0003012021375823012021375823012021348
:1005C000D003D0020ABA00960B80937A007B00C356
:1005D000EA9402EB64809480504A753201E4F5336A
:1005E000758230C002C003120213758230120213EA
:1005F000758230120213758230120213E4F532F55F
:1006000033758230120213758230120213758230F4
:10061000120213758230120213D003D0020ABA00FC
:10062000AE0B80AB9000002290FFFF22AA82AB832A
:10063000EA4B70030207057A007B00C3EA9401EBE2
:10064000648094805062753201E4F533758230C065
:1006500002C0031202137582301202137582301227
:100660000213758230120213E4F532F533758230CD
:100670001202137582301202137582301202137542
:100680008230120213758230120213758230120208
:1006900013758230120213758230120213D003D008
:1006A000020ABA00960B80937A007B00C3EA940496
:1006B000EB64809480504A753201E4F533758230E2
:1006C000C002C00312021375823012021375823009
:1006D000120213758230120213E4F532F53375827B
:1006E0003012021375823012021375823012021317
:1006F000758230120213D003D0020ABA00AE0B800A
:10070000AB9000002290FFFF22AA827B077C00ECC6
:1007100030E701228BF005F0EA8002C313D5F0FB2D
:1007200030E061753201E4F533758230C002C003F8
:10073000C004120213758230120213758230120245
:1007400013758230120213E4F532F53375823012DC
:1007500002137582301202137582301202137582F1
:100760003012021375823012021375823012021396
:10077000758230120213758230120213D004D00336
:10078000D0028047753201E4F533758230C002C073
:1007900003C00412021375823012021375823012E4
:1007A0000213758230120213E4F532F5337582308C
:1007B0001202137582301202137582301202137501
:1007C0008230120213D004D003D0021BBBFF011CE5
:1007D00002070F1203881202CE12014A7511027528
:1007E0008202120164751103758202120164A2A4CF
:1007F000E433F5437544007582101201A7AC82AD55
:100800008375820FC004C0051201A7AE82AF83D0EA
:1008100005D004C374D29C74AD8DF063F08095F064
:1008200040030208BFEC242EF582ED34D2F583C0DC
:1008300006C007120CA9A882A983AAF0FBE4C0E0B5
:100840007468C0E07491C0E07445C0E08882898318
:100850008AF0EB120CB6AA82AB83A8F0F9E58124EA
:10086000FCF581C002C003C000C00190480075F0D3
:10087000377446120AE2AA82AB83A8F0F9E5812414
:10088000FCF581E4C0E07448C0E07437C0E0744611
:10089000C0E08A828B8388F0E9120B85AA82AB8341
:1008A000A8F0F9E58124FCF5818A828B8388F0E940
:1008B000120AAE858245858346D007D00680048C17
:1008C000458D46C374149E74AE8FF063F08095F02E
:1008D0004003020965EE24ECF582EF34D1F5831272
:1008E0000CA9A882A983AAF0FBE4C0E07458C0E078
:1008F000748FC0E07445C0E0888289838AF0EB126F
:100900000CB6AA82AB83A8F0F9E58124FCF581C07E
:1009100002C003C000C00190500075F03874461248
:100920000AE2AA82AB83A8F0F9E58124FCF581E410
:10093000C0E07450C0E07438C0E07446C0E08A8201
:100940008B8388F0E9120B85AA82AB83A8F0F9E5C6
:100950008124FCF5818A828B8388F0E9120AAEAA91
:1009600082AB8380048E028F03A845E546A2E7C8C8
:1009700033C833A2E7C833C833C8540330E1024454
:10098000FC88478A01EBA2E7C933C933A2E7C93320
:10099000C933C9540330E10244FC900001C002C0D5
:1009A00003C00112054F854782120709D0018982D1
:1009B00012070990000112062C753201E4F5337517
:1009C00082301202137582301202137582301202C5
:1009D0001375823012021375823012021375823041
:1009E00012021375823012021375823012021375CF
:1009F0008230120213758230120213E4F532F5339D
:100A000090006412023D85453F85464090000112EA
:100A10000415D003D0028A418B42900002C002C06C
:100A200003120453D003D002C043C044C002C00329
:100A3000C045C046742BC0E07400C0E07480C0E0C4
:100A4000120BF3E58124F7F5817582131201B812B8
:100A50000AAE120CA985823785833885F039F53ABC
:100A60009000011203917582121201B8120AAE129F
:100A70000CA985823B85833C85F03DF53E900002C4
:100A80001203D30207EE20F71430F6148883A882ED
:100A900020F507E6A88375830022E280F7E493221D
:100AA000E022E4AC83AB82FAF9748E020DDE120D03
:100AB000E8700AE582458345F0700122E430D112E6
:100AC000F4700BE5F0F47006E58330E701229080C6
:100AD0000022700AE5F07006E58320E70122907F8E
:100AE000FF22120EC5BC0003020E64EF60FA30D57F
:100AF00002B2D1E583B4FF03020E7AE582B4FF03AC
:100B0000020E7A258340072482400B020E64248360
:100B1000145003020E7AF582EA8DF0A4A8F0EA8E52
:100B2000F0A428F8E435F0F9EB8DF0A428E935F0CD
:100B3000F9E433CA8FF0A429F9EA35F0FAEBF88E1C
:100B4000F0A429F9EA35F0FAE433FBEC8DF0A4299E
:100B5000F9EA35F0FAE43BFBE88FF0A42AFAEB352A
:100B6000F0FBE433CCFD8EF0A42AFAEB35F0FBE485
:100B70003CFCED8FF0A42BFBEC35F0FC20E70312DE
:100B80000E92020E43120EC57900E583B5820280F3
:100B90000D5003120EF3E583C39582120F0DE5D0BD
:100BA000C465D020E117EA2DFAEB3EFBEC3FFC5088
:100BB000097401120F0DEC4480FC020E43C3EA9D40
:100BC000FAEB9EFBEC9FFC500FC3E499F9E49AFA10
:100BD000E49BFBE49CFCB2D1120E92020E4302187D
:100BE000DC85825685835785F058851059900BDE39
:100BF00002132FC008858108E50824FBF559E50894
:100C000024FBF88656088657088658900BDE121388
:100C10002FD00822AA82AB09AC0AAD0B8B828C8341
:100C20008DF0EA1218F10509E4B50902050A2285DA
:100C3000820985830A85F00B850C56850D57850E34
:100C400058850F59900C1412132FAA82AB83AC094C
:100C5000AD0AAE0B8C828D838EF0E41218F18A827D
:100C60008B8322C008858108E50824F8F559E5083A
:100C700024FBF8860908860A08860BE50824F8F89C
:100C80008656088657088658900C1412132FAA828D
:100C9000AB83AC09AD0AAE0B8C828D838EF0E4126F
:100CA00018F18A828B83D00822AC83AB827A0079D8
:100CB00000748E021913120EC530D502B2D1BF00D6
:100CC00009BC0003020E87020E7ABC0003020E6408
:100CD000E583B4FF0BE582B4FF03020E87020E64C6
:100CE000E582B4FF03020E7AC395835007247F4048
:100CF0000B020E642480145003020E7AC0E0E4CC90
:100D0000CBCAF98D118E128F13EF54F0C4F5147500
:100D100083068514F0EB84F582E9C4F9EAC4FAEBA2
:100D2000C4FBEC540FC47803D6FC18EBD6FB18EACE
:100D3000D6FA8582F0EDA4A8F0FD8582F0EEA42815
:100D4000FEE435F0F88582F0EFA428FFE435F0F8F2
:100D5000E99DF9EA9EFAEB9FFBEC98FCAD11AE120F
:100D6000AF1330E7101582E92DF9EA3EFAEB3FFBAD
:100D7000E43CFC80EDC082D58398C3E933F9EA33C3
:100D8000FAEB33FBEC33FCC3E99DEA9EEB9FEC945A
:100D900000B3E413F9D002D0E0C44AFAD003D0E0A3
:100DA000C44BFBD004D0E0F5F0540FC44CFCD0820F
:100DB000158230F40FD3EC13FCEB13FBEA13FAE9C2
:100DC00013F90582E930E70A74012AFAE43BFBE4EF
:100DD0003CFC020E5BFCABF0AA83A982749EC2D1DC
:100DE000F582120E92020E43121937C3749E958239
:100DF00040397900120F0D30D126E9F42401F58233
:100E0000EAF43400F583EBF43400F5F0ECF434004C
:100E1000700AE582458345F0700122E430E70F2235
:100E2000EC20E71489828A838BF02230D10AE4F522
:100E300082F583F5F074802274FFF582F583F5F076
:100E4000747F22B98003EA13B34010EA2401FAE464
:100E50003BFBE43CFC50047C800582BC000EBB00E4
:100E60000BBA0008E4F5F0F583F58222A2D1E58201
:100E7000138CF092F78B838A8222E4F583F58275D6
:100E8000F080F4A2D11322E4F583F58275F0C074EA
:100E90007F227804EC7011E58224F8500AF582E490
:100EA000C9CACBFCD8EF22EC7820058220E713D505
:100EB000820122C3E933F9EA33FAEB33FBEC33FC6A
:100EC000D8EA158222AA82AB83A2F73392D16002BC
:100ED000D2F7F582ACF0E58124F9F8E6FD08E6FEEC
:100EE0000886F008E6A2F73392D56002D2F7F583C0
:100EF000AFF022E582C583F582A2D133A2D592D18B
:100F00001392D5ECCFFCEBCEFBEACDFA226040F891
:100F10002582500274FFF582E824F8501ECCCBCA1B
:100F2000F9E4CC24F85014CBCAF9E4CB24F8500BE4
:100F3000CAF9E4CA24F8500379002224086010F8A2
:100F4000C3EC13FCEB13FBEA13FAE913F9D8F12213
:100F5000AA827461C0E0740FC0E0C048C0498A82B0
:100F600022054FE4B54F02055022AA8274302AFAB6
:100F700024C6500A74072AFA3001034302208A82E9
:100F8000020F50E582FAC4540FF582C002120F6AB4
:100F9000D002740F5AF582020F6AAA4AAB4BAC4CCE
:100FA000AD4DAE4E755520EE2EFEED235401FF42A1
:100FB00006EA2AFAEB33FBEC33FCED33FDC3EE9586
:100FC000514008EEC39551FE430201D555D98A4AD6
:100FD0008B4B8C4C8D4D8E4E227866E624D075F06E
:100FE0000AA4FA7867E624D02AFA78658603BB2D2E
:100FF00004C3E49AFA755101C3E464808AF063F093
:101000008095F050297555038A0374F62555401CC8
:101010000551E55514245AF8E555245AF98704A6D4
:1010200004772E1BEBFA6004055580DE8B02EA3054
:10103000E70D785B8603785CA603785B762E0AE57D
:1010400053600AE55304FB2551F5518005300C022D
:101050000551785A8603E4BB2D0104FB7006200776
:10106000033008020551300503021120300657EB0A
:10107000600C75822DC002120F50D002801C300708
:101080000C75822BC002120F50D002800D30080A5E
:10109000758220C002120F50D002785B8604BC2EED
:1010A0000C758230C002120F50D0021552AC52158E
:1010B00052C3E5519C4003021164758230C0021294
:1010C0000F50D00280E7AC521552C3E5519C500C32
:1010D000758220C002120F50D00280EA785A86042E
:1010E000BC2D0C75822DC002120F50D002801C3016
:1010F000070C75822BC002120F50D002800D3008F1
:101100000A758220C002120F50D002785B8604BCA0
:101110002E52758230C002120F50D00215528044F8
:10112000EB600E75822DC002120F50D00215528056
:101130002030070E75822BC002120F50D0021552BC
:10114000800F30080C758220C002120F50D002159B
:1011500052785B8603BB2E0C758230C002120F5092
:10116000D0021552755501C20EE555245AF8860372
:10117000BB4503021221BB2E348A03C3E464808B77
:10118000F063F08095F0500F758230C003120F505D
:10119000D0031B8B0280E48B02D20EE55370382003
:1011A0000C0302122175822E120F508074300E270C
:1011B0008A03EB30E71FC3E464808553F063F0805B
:1011C00095F0500C758230C003120F50D0031553A8
:1011D0000B8B0280DD8B02300E0EC3E464808553DE
:1011E000F063F08095F05021E555245AF886038B82
:1011F00082C002120F50D002300E0EE555245AF86C
:101200008603BB2E02800215531552C3E464808509
:1012100053F063F08095F04003200E050555021150
:1012200069C3E464808553F063F08095F0500A75DB
:101230008230120F50155380E830050FAA52155214
:10124000EA6008758220120F5080F122E553700386
:10125000300C0D74072553FAE552C39AF5528006F7
:10126000E55224FAF552755500785A8602BA2B0FCA
:1012700020070C785A762020080575550105522064
:101280000519AA52C3E464808AF063F08095F05097
:101290000A758220120F50155280E7C20EE55524C0
:1012A0005AF88602BA00028069BA451F30010276F8
:1012B00065C3E464808553F063F08095F0500A754F
:1012C0008230120F50155380E8D20EC3E5559402B8
:1012D000E433FA7014EA700EC3E464808553F0635B
:1012E000F08095F04003300E16E555245AF886023A
:1012F0008A82120F50E55524FD50121553800E744A
:1013000002B55509300C0675822E120F5005550294
:10131000129D300519AA52C3E464808AF063F080FC
:1013200095F0500A758220120F50155280E72285E1
:101330008248858349E4F54FF550AA56AB57AC581F
:101340008A828B838CF0120A86FD74012AF556E49A
:101350003BF5578C58EDFA70030218D5BA25028078
:10136000030218CDC205C206C207C208C209C20ADA
:10137000C20BC20CC202C203C204755100755200F6
:101380007553FFAB56AC57AD588B828C838DF012E2
:101390000A86FAA3AB82AC838B568C578D58BA253C
:1013A000078A82120F5080928A06BE3000402E8A31
:1013B00006EE24C6402774FFB55313E55275F00AB4
:1013C000A4FEEA24D02EF55270BFD20680BBE553AE
:1013D00075F00AA4FEEA24D02EF55380ACBA2E0A8A
:1013E00074FFB553A4755300809F8A06BE61004008
:1013F0000E8A06EE248540075302DFD2018002C226
:1014000001BA20028075BA230302148ABA2A0302A1
:10141000148FBA2B02805FBA2D028055BA42028027
:101420005FBA43030214D4BA440302160FBA450349
:10143000021629BA4603021625BA470302162DBA28
:10144000490302160FBA4C02803BBA4E0302163112
:10145000BA4F03021616BA50030215A8BA53030274
:1014600014F8BA550302161BBA58030216200216C6
:101470005BD205021389D207021389D208021389AD
:10148000D20A021389D20B021389D20C0213897477
:10149000FFB55320300A0BE55914F88859865202DB
:1014A0001389E55924FEF888598606088607188EA0
:1014B00052021389300A0BE55914F88859865302F1
:1014C0001389E55924FEF888598606088607188E80
:1014D00053021389300A0AE55914F88859860280A4
:1014E0000FE55924FEF888598603088604188B02F4
:1014F0008A82120F50021660E55924FDF888598639
:101500000308860408860518188B4A8C4B8D4C8B73
:10151000828C838DF0121A68AB82AC838B5474FF7B
:10152000B5530385545320051DC3E55495525016F9
:10153000E552C39554F552AB521552EB60087582D3
:1015400020120F5080F1854A82854B83854CF01222
:101550000A86FBFA6029AB531553C3E464808BF011
:1015600063F08095F050188A82120F50AB4AAC4B52
:10157000AD4C0BBB00010C8B4A8C4B8D4C80C720B3
:101580000503021660C3E55495524003021660E558
:1015900052C39554F552AB521552EB7003021660CC
:1015A000758220120F5080EEE55924FDF888598687
:1015B0000308860408860518188B4A8C4B8D4CE569
:1015C0004CFB30E7047A438013EB546060047A509C
:1015D000800AEB30E6047A4980027A588A82C00297
:1015E000120F5075823A120F50758230120F5075DB
:1015F0008278120F50D002BA4902800BBA50028092
:1016000006854B82120F83854A82120F838051D246
:101610000975510A804A755108804575510A804004
:10162000755110803BD2028037D2038033D20480C0
:101630002FE55924FDF88859860308860408860595
:1016400018188B4A8C4B8D4C8B828C838DF0E54F18
:101650001218F1A3E5501218F180058A82120F507A
:10166000200206200303300470E55924FCF8885951
:1016700086030886040886050886061818188B4A0B
:101680008C4B8D4C8E4DE54AE54BE54CE54D8B8200
:101690008C838DF0EE12194974FFB5530375530610
:1016A000300427747F554DFB8B4EE54EEB2BFB8BA7
:1016B0004EE54C30E7067401454EF54EE54E246884
:1016C00040067499254E4002D20330030612124C94
:1016D00002133A120FD902133AE551700302133A7A
:1016E0007B5F300A2BE55914F88859E6FC3395E006
:1016F000FDFEFF8C4A8D4B8E4C8F4D20095EAC4A0F
:101700007D007E007F008C4A8D4B8E4C8F4D804C2F
:10171000300B1FE55924FCF8885986040886050813
:1017200086060886071818188C4A8D4B8E4C8F4DEC
:10173000802AE55924FEF88859860408860518EDA4
:101740003395E0FEFF8C4A8D4B8E4C8F4D20090C5B
:10175000AC4AAD4B7E007F008E4C8F4D300C43E584
:101760004A454B454C454D60397408B5510C75825E
:1017700030C003120F50D00380287410B551237568
:101780008230C003120F50D00330010C758278C034
:1017900003120F50D003800A758258C003120F50F5
:1017A000D003300925AC4AAD4BAE4CE54DFF30E7D8
:1017B00017C3E49CFCE49DFDE49EFEE49FFF8C4A7D
:1017C0008D4B8E4C8F4D8002C209755400D20D8B0B
:1017D00000754E00C000120F9AD000200D0DE54E8E
:1017E000C4FCE6FD4CF61888038002A64E0554B2F0
:1017F0000DE54A454B454C454D70D68803E5527082
:101800000375520120061A200517E55404FCC39500
:1018100052500E758220C003120F50D00315528013
:10182000E930090E75822DC003120F50D0031552F6
:101830008024E554602030070E75822BC003120F00
:1018400050D0031552800F30080C758220C003124F
:101850000F50D003155220051EAC521552C3E5544B
:101860009C50273006047C3080027C208C82C00390
:10187000120F50D00380E2C3E55495525009E5524F
:10188000C39554F55280037552008B00AB54155428
:10189000EB6022B20D200D0A08E6C4540FFB8B4EFC
:1018A00080078603740F5BF54E854E82C000120FD1
:1018B0006AD00080D720050302133AAB521552EBD1
:1018C000700302133A758220120F5080EE8A821242
:1018D0000F5002133A854F8285508322AA82BA0A9A
:1018E0000810990280FB75990D10990280FB8A9966
:1018F0002220F71030F6118883A88220F507F6A879
:101900008375830022F280F7F022FCABF0AA83A952
:1019100082749EF582C2D1EC30E716D2D1E9F4246C
:1019200001F9EAF43400FAEBF43400FBECF434008F
:10193000FC120E92020E43AA82AB83A2F73392D11D
:101940006002D2F7F582ACF022C0E0F84582458310
:1019500045F07009F5F0FBFCFDFE021A17E823A222
:10196000F792E0F8A982AA83D2F7ABF07C007E0759
:10197000C3749798404074FF2EFE740A89F0A4F94E
:1019800085F082740A8AF0A4FA85F083740A8BF0D9
:10199000A4FB740529F9EA3582FAEB3583FB740060
:1019A00035F0FCC3EC13FCEB13FBEA13FAE913F973
:1019B00008EC70EF80BAE8C3947FF88B838EF0E474
:1019C000FBFCFDFEFF08C3E933F9EA33FAE5833394
:1019D000F583EB3BD4FBEC3CD4FCED3DD4FDEE3E7B
:1019E000D4FEEF3FD4FF602D05F074052BD4FBE44B
:1019F0003CD4FCE43DD4FDE43ED4FEE43FD4FF758A
:101A00008204C3EF13FFEE13FEED13FDEC13FCEBAA
:101A100013FBD582EDD8AF785AD0E020E704762BBF
:101A20008002762D087906E7C4540F4430F608B9D1
:101A30000603762E08E7540F4430F60819B902E77A
:101A4000764508E5F020E704762B8004762DF40433
:101A50000875F00A844430F608E5F04430F608E4EE
:101A6000F690005A75F04022AA82AB83ACF07D005C
:101A70007E008A828B838CF0120A86FFA3AA82AB37
:101A800083EF60070DBD00EA0E80E78D828E832212
:00000001FF
