:1000000002005E706F7320783A20252E32660070F1
:100010006F7320793A20252E326600783A20252EFB
:10002000316400793A20252E316400785F706F7357
:100030003A2025642C20795F706F733A2025642C58
:1000400020627574746F6E3A2025640A0000000007
:1000500000000000000000000000000204FD7581A7
:100060006B1200E1E58260030200CA780079007A31
:10007000007B007C007D00EC4D601C88828983E45D
:1000800093A3A882A9838A828B83F0A3AA82AB83DD
:100090001CBCFFE31D80E07582007583007C007D41
:1000A00000EC4D600AE4F0A31CBCFFF51D80F27566
:1000B00082007583007C007D00EC4D600AE4F0A3B3
:1000C0001CBCFFF51D80F21200CF120B6B80FEE40A
:1000D000F532F533753408E4F535753601E4F53756
:1000E0002275A7007597DE7597AD43FF8075EF0207
:1000F00075A71075C12075A70075A90075A900E541
:10010000A930E7FB75A90375A903E5A930E7FB430F
:10011000A480E5A575A5FF43A60175E10175E20080
:1001200075E340759810858E8E758DE6858D8B53A1
:10013000890F438920D28ED29975A70075D9007591
:10014000F90075FA0075D90875DA4975FBB375FCC5
:1001500003D2DE43E610D2AF7582002275A700C23B
:10016000EF75B28075BC2075B91E75E80075DF3F6C
:1001700075B300D2EF22AA828511F005F0740180D8
:100180000225E0D5F0FBFB75A720BA0002800ABA71
:100190000102800FBA021E8014EBF4FA52F1EB4216
:1001A000D48012EBF4FA52F2EB42D58008EBF4FA69
:1001B00052F3EB42CC75A700228582BBC2EDD2EC94
:1001C00030EDFD85BD8285BE83221201B9120E4F2E
:1001D000AA82AB83ACF0FDC002C003C004C005908E
:1001E000E35475F0957440120E8FAA82AB83ACF085
:1001F000FDE58124FCF581E4C0E074FCC0E0747F7F
:10020000C0E07446C0E08A828B838CF0ED12109BB4
:10021000AA82AB83ACF0FDE58124FCF5818A828B58
:10022000838CF0ED22AA82438E407592B87593FFBD
:100230008592948593957591047B00C3EB9A500B3E
:10024000E59130E7FB53917F0B80F075910022AA76
:1002500082AB83BA0004BB0001227582F9C002C0E0
:10026000031202257582F91202257582F912022500
:100270007582FA120225D003D0021ABAFF011B8040
:10028000D2D2A0758228120225C2A022AA828AE0B8
:10029000A2E79290A2E69291A2E59292A2E49293B2
:1002A000C002120281758228120225D0028AE0A2C1
:1002B000E39290A2E29291A2E19292A2E092930242
:1002C0000281AA82D2978A8212028C9000020202D4
:1002D0004FAA82C2978A8212028C90000502024FB6
:1002E000C2A090001412024F7582331202D175829F
:1002F000331202D17582321202D17582281202D1D4
:1003000075820C1202D17582011202D19000140282
:10031000024FAA82AB83ACF07402B538047DC08072
:10032000027D808D82C002C003C0041202D1900001
:100330000512024FD004D003D0027D007E00ED2ACA
:10034000FFEE3BF88C018F82888389F0120E33FF19
:1003500060208F82C002C003C004C005C006120224
:10036000C2D006D005D004D003D0020DBD00CF0E00
:1003700080CC3000248D028E03C3EA9410EB64809D
:1003800094805015758220C002C0031202C2D003AF
:10039000D0020ABA00E30B80E0225389F0438901BE
:1003A000C28C22AA82AB83C002C003C039C03AC04B
:1003B0003BC03C7403C0E07400C0E07480C0E074D3
:1003C00022C0E07400C0E07440C0E0121048E58133
:1003D00024F6F581D003D0028A38D200900022752D
:1003E000F040020312AA82AB83C002C003C03DC02A
:1003F0003EC03FC040740FC0E07400C0E07480C0D5
:10040000E07422C0E07400C0E07440C0E012104804
:10041000E58124F6F581D003D0028A38D20090001D
:100420002275F040020312AA82AB83C002C003C04F
:1004300041C042741BC0E07400C0E07480C0E0742E
:1004400022C0E07400C0E07440C0E0121048E581B2
:1004500024F8F581D003D0028A38D20090002275AA
:10046000F040020312AA82AB83C002C003C043C0A3
:10047000447423C0E07400C0E07480C0E07422C003
:10048000E07400C0E07440C0E0121048E58124F838
:10049000F581D003D0028A38D20090002275F04056
:1004A00002031212108EAA82AB83ACF0FDC002C010
:1004B00003C004C00590000075F07F7443120E8FD6
:1004C000AA82AB83ACF0FDE58124FCF581E4C0E0B9
:1004D00074FFC0E0747FC0E07447C0E08A828B8301
:1004E0008CF0ED12109BAA82AB83ACF0FDE5812469
:1004F000FCF5818A828B838CF0ED020E5BC0E0C03C
:1005000002C003C004C005C0D075D00075A700307C
:10051000D840ABFC7A00ACFB7D00EC2AFAED3BFB4B
:100520003395E0FCFD74B32AFA74033BFBE43CE42E
:100530003D8A047D008CFB8B027B008AFCC2D87450
:1005400001B53206E4B5330280028004B28780022E
:10055000C287C2DFD0D0D005D004D003D002D0E013
:1005600032AA82AB83EA4B700302063A7A007B0020
:10057000C3EA9403EB648094805062753201E4F521
:1005800033758230C002C003120225758230120218
:1005900025758230120225758230120225E4F5326B
:1005A000F53375823012022575823012022575826C
:1005B0003012022575823012022575823012022512
:1005C0007582301202257582301202257582301232
:1005D0000225D003D0020ABA00960B80937A007BE2
:1005E00000C3EA9402EB64809480504A753201E4BF
:1005F000F533758230C002C00312022575823012B5
:100600000225758230120225758230120225E4F52A
:1006100032F533758230120225758230120225754B
:100620008230120225758230120225D003D0020AD0
:10063000BA00AE0B80AB9000002290FFFF22AA828E
:10064000AB83EA4B70030207177A007B00C3EA947E
:1006500001EB648094805062753201E4F533758259
:1006600030C002C003120225758230120225758245
:1006700030120225758230120225E4F532F5337509
:1006800082301202257582301202257582301202E4
:10069000257582301202257582301202257582304E
:1006A000120225758230120225758230120225D081
:1006B00003D0020ABA00960B80937A007B00C3EA4B
:1006C0009404EB64809480504A753201E4F53375EC
:1006D0008230C002C00312022575823012022575D5
:1006E0008230120225758230120225E4F532F5338C
:1006F0007582301202257582301202257582301201
:100700000225758230120225D003D0020ABA00AE4B
:100710000B80AB9000002290FFFF22AA827B077C17
:1007200000EC30E701228BF005F0EA8002C313D51C
:10073000F0FB30E061753201E4F533758230C002C0
:10074000C003C00412022575823012022575823062
:10075000120225758230120225E4F532F5337582D6
:100760003012022575823012022575823012022560
:100770007582301202257582301202257582301280
:100780000225758230120225758230120225D004AE
:10079000D003D0028047753201E4F533758230C052
:1007A00002C003C004120225758230120225758230
:1007B00030120225758230120225E4F532F53375C8
:1007C00082301202257582301202257582301202A3
:1007D00025758230120225D004D003D0021BBBFF46
:1007E000011C020721E582FA30E053753201E4F57D
:1007F00033758230120225758230120225758230DF
:10080000120225758230120225E4F532F533758225
:1008100030120225758230120225758230120225AF
:1008200075823012022575823012022575823012CF
:10083000022575823012022575823002022575323A
:1008400001E4F533758230120225758230120225DB
:10085000758230120225758230120225E4F532F5D8
:10086000337582301202257582301202257582306E
:10087000120225758230020225AA82AB83BA0105D5
:10088000BB00028012BA0205BB00028064BA0306F4
:10089000BB00030209BC227A007B00C3EA9402EB8E
:1008A00064809480400122753201E4F53375823012
:1008B000C002C003120225758230120225758230F3
:1008C000120225758230120225E4F532F533758265
:1008D00030120225758230120225758230120225EF
:1008E000758230120225D003D0020ABA00AD0B8007
:1008F000AA7A007B00C3EA9401EB64809480504A9A
:10090000753201E4F533758230C002C0031202254E
:1009100075823012022575823012022575823012DE
:100920000225E4F532F533758230120225758230E6
:10093000120225758230120225758230120225D0EE
:1009400003D0020ABA00AE0B80AB7A007B00C3EA88
:100950009401EB64809480400122753201E4F53308
:10096000758230C002C00312022575823012022542
:10097000758230120225758230120225E4F532F5B7
:10098000337582301202257582301202257582304D
:1009900012022575823012022575823012022575E9
:1009A00082301202257582301202257582301202C1
:1009B00025D003D0020ABA00950B80927A007B0002
:1009C000C3EA9401EB648094805062753201E4F5CF
:1009D00033758230C002C0031202257582301202C4
:1009E00025758230120225758230120225E4F53217
:1009F000F533758230120225758230120225758218
:100A000030120225758230120225758230120225BD
:100A100075823012022575823012022575823012DD
:100A20000225D003D0020ABA00960B80937A007B8D
:100A300000C3EA9401EB6480948040012275320186
:100A4000E4F533758230C002C0031202257582308E
:100A5000120225758230120225758230120225E4B9
:100A6000F532F53375823012022575823012022577
:100A7000758230120225758230120225D003D00211
:100A80000ABA00010B020A31AA827B00AC457D0044
:100A9000EC2AF582ED3BF583751102E4F512120F95
:100AA000C1AA827B077C00EC30E701228BF005F0C5
:100AB000EA8002C313D5F0FB30E061753201E4F542
:100AC00033758230C002C003C00412022575823023
:100AD000120225758230120225758230120225E439
:100AE000F532F533758230120225758230120225F7
:100AF00075823012022575823012022575823012FD
:100B00000225758230120225758230120225758207
:100B100030120225D004D003D0028047753201E4A0
:100B2000F533758230C002C003C0041202257582FD
:100B3000301202257582301202257582301202258C
:100B4000E4F532F5337582301202257582301202D7
:100B500025758230120225758230120225D004D00C
:100B600003D0021BBBFF011C020AA712039A120248
:100B7000E012015C75110275820212017675110393
:100B8000758202120176A2A4E433F5467582101232
:100B900001B9AB82AC8375820FC003C0041201B9E6
:100BA000AD82AE83D004D003C374D29B74AD8CF0FD
:100BB00063F08095F04003020C54EB242EF582EC98
:100BC00034D2F583C005C00612108EAF82A883A967
:100BD000F0FAE4C0E07468C0E07491C0E07445C00D
:100BE000E08F82888389F0EA12109BAA82AF83A8E3
:100BF000F0F9E58124FCF581C002C007C000C00106
:100C000090480075F0377446120E8FAA82AF83A801
:100C1000F0F9E58124FCF581E4C0E07448C0E0749B
:100C200037C0E07446C0E08A828F8388F0E9120FF3
:100C300032AA82AF83A8F0F9E58124FCF5818A828B
:100C40008F8388F0E9120E5B858247858348D00642
:100C5000D00580048B478C48C374149D74AE8EF00D
:100C600063F08095F04003020CFAED24ECF582EE7F
:100C700034D1F58312108EA882A983AAF0FFE4C0B4
:100C8000E07458C0E0748FC0E07445C0E088828989
:100C9000838AF0EF12109BAA82AF83A8F0F9E58156
:100CA00024FCF581C002C007C000C001905000754F
:100CB000F0387446120E8FAA82AF83A8F0F9E5814E
:100CC00024FCF581E4C0E07450C0E07438C0E074E6
:100CD00046C0E08A828F8388F0E9120F32AA82AF81
:100CE00083A8F0F9E58124FCF5818A828F8388F05E
:100CF000E9120E5BAA82AF8380048D028E078547BE
:100D000082854883C002C0071204A3A882D007D0FE
:100D10000288498A828F83C002C0071204A3A98275
:100D2000900001C00112056185498212071BD001A4
:100D30008982C00112071B8546821207E58546821B
:100D40001207E58546821207E585368285378312CC
:100D50000879D0018945854982120A8890000112DC
:100D6000063E753201E4F533758230120225758234
:100D7000301202257582301202257582301202254A
:100D8000758230120225758230120225758230126A
:100D90000225758230120225758230120225758275
:100DA00030120225E4F532F53390006412024F85CB
:100DB0004741854842900001120427D007D0028A9B
:100DC000438F44900002C002C007120465D007D0D0
:100DD00002A8467900C000C001C002C007C047C0D9
:100DE00048742BC0E07400C0E07480C0E0120FA013
:100DF000E58124F7F5817582131201CA120E5B1288
:100E0000108E85823985833A85F03BF53C90000150
:100E10001203A37582121201CA120E5B12108E8584
:100E2000823D85833E85F03FF5409000021203E548
:100E3000020B8620F71430F6148883A88220F50769
:100E4000E6A88375830022E280F7E49322E022E49F
:100E5000AC83AB82FAF9748E0211EC1211F6700AAF
:100E6000E582458345F0700122E430D112F4700B25
:100E7000E5F0F47006E58330E701229080002270EF
:100E80000AE5F07006E58320E70122907FFF221239
:100E900012D3BC0003021272EF60FA30D502B2D155
:100EA000E583B4FF03021288E582B4FF03021288CF
:100EB000258340072482400B0212722483145003BE
:100EC000021288F582EA8DF0A4A8F0EA8EF0A42838
:100ED000F8E435F0F9EB8DF0A428E935F0F9E433C6
:100EE000CA8FF0A429F9EA35F0FAEBF88EF0A429BC
:100EF000F9EA35F0FAE433FBEC8DF0A429F9EA3590
:100F0000F0FAE43BFBE88FF0A42AFAEB35F0FBE4BF
:100F100033CCFD8EF0A42AFAEB35F0FBE43CFCED7B
:100F20008FF0A42BFBEC35F0FC20E7031212A0029B
:100F300012511212D37900E583B58202800D50035D
:100F4000121301E583C3958212131BE5D0C465D04B
:100F500020E117EA2DFAEB3EFBEC3FFC500974014F
:100F600012131BEC4480FC021251C3EA9DFAEB9E63
:100F7000FBEC9FFC500FC3E499F9E49AFAE49BFB65
:100F8000E49CFCB2D11212A0021251021CEA85822A
:100F90005885835985F05A85105B900F8B02173D59
:100FA000C008858108E50824FBF55BE50824FBF80B
:100FB000865808865908865A900F8B12173DD0081C
:100FC00022C2D5E58330E70DD2D5E4C39582F58200
:100FD000E49583F583E51230E70DB2D5E4C39511AE
:100FE000F511E49512F5121211BA30D50BE4C39540
:100FF00082F582E49583F58322AA82AB09AC0AAD1F
:101000000B8B828C838DF0EA121CFF0509E4B50975
:1010100002050A2285820985830A85F00B850C5812
:10102000850D59850E5A850F5B900FF912173DAA51
:1010300082AB83AC09AD0AAE0B8C828D838EF0E45B
:10104000121CFF8A828B8322C008858108E5082450
:10105000F8F55BE50824FBF8860908860A08860B84
:10106000E50824F8F8865808865908865A900FF93A
:1010700012173DAA82AB83AC09AD0AAE0B8C828DF0
:10108000838EF0E4121CFF8A828B83D00822AC830B
:10109000AB827A007900748E021D211212D330D5F2
:1010A00002B2D1BF0009BC0003021295021288BC33
:1010B0000003021272E583B4FF0BE582B4FF030262
:1010C0001295021272E582B4FF03021288C395835F
:1010D0005007247F400B0212722480145003021226
:1010E00088C0E0E4CCCBCAF98D118E128F13EF5477
:1010F000F0C4F5147583068514F0EB84F582E9C419
:10110000F9EAC4FAEBC4FBEC540FC47803D6FC181C
:10111000EBD6FB18EAD6FA8582F0EDA4A8F0FD859F
:1011200082F0EEA428FEE435F0F88582F0EFA428E2
:10113000FFE435F0F8E99DF9EA9EFAEB9FFBEC98A5
:10114000FCAD11AE12AF1330E7101582E92DF9EAAC
:101150003EFAEB3FFBE43CFC80EDC082D58398C3B4
:10116000E933F9EA33FAEB33FBEC33FCC3E99DEAEC
:101170009EEB9FEC9400B3E413F9D002D0E0C44A94
:10118000FAD003D0E0C44BFBD004D0E0F5F0540F0C
:10119000C44CFCD082158230F40FD3EC13FCEB135B
:1011A000FBEA13FAE913F90582E930E70A74012A28
:1011B000FAE43BFBE43CFC0212697A10E4FBFCE538
:1011C0008225E0F582E58333F583EB33FBEC33FCDA
:1011D000EB9511F5F0EC95124006FCABF043820163
:1011E000DADD22FCABF0AA83A982749EC2D1F5821B
:1011F0001212A0021251121D45C3749E95824039ED
:10120000790012131B30D126E9F42401F582EAF4A7
:101210003400F583EBF43400F5F0ECF43400700A9C
:10122000E582458345F0700122E430E70F22EC208F
:10123000E71489828A838BF02230D10AE4F582F5A3
:1012400083F5F074802274FFF582F583F5F0747FE6
:1012500022B98003EA13B34010EA2401FAE43BFB0D
:10126000E43CFC50047C800582BC000EBB000BBA41
:101270000008E4F5F0F583F58222A2D1E582138C13
:10128000F092F78B838A8222E4F583F58275F080F1
:10129000F4A2D11322E4F583F58275F0C0747F22A5
:1012A0007804EC7011E58224F8500AF582E4C9CA8A
:1012B000CBFCD8EF22EC7820058220E713D5820101
:1012C00022C3E933F9EA33FAEB33FBEC33FCD8EA17
:1012D000158222AA82AB83A2F73392D16002D2F7A1
:1012E000F582ACF0E58124F9F8E6FD08E6FE088613
:1012F000F008E6A2F73392D56002D2F7F583AFF09B
:1013000022E582C583F582A2D133A2D592D1139270
:10131000D5ECCFFCEBCEFBEACDFA226040F825827B
:10132000500274FFF582E824F8501ECCCBCAF9E4D1
:10133000CC24F85014CBCAF9E4CB24F8500BCAF9EA
:10134000E4CA24F8500379002224086010F8C3ECA2
:1013500013FCEB13FBEA13FAE913F9D8F122AA8282
:10136000746FC0E07413C0E0C04AC04B8A8222058B
:1013700051E4B55102055222AA8274302AFA24C6D9
:10138000500A74072AFA3001034302208A820213AA
:101390005EE582FAC4540FF582C002121378D002BF
:1013A000740F5AF582021378AA4CAB4DAC4EAD4F78
:1013B000AE50755720EE2EFEED235401FF4206EA93
:1013C0002AFAEB33FBEC33FCED33FDC3EE955340CF
:1013D00008EEC39553FE430201D557D98A4C8B4D75
:1013E0008C4E8D4F8E50227868E624D075F00AA47A
:1013F000FA7869E624D02AFA78678603BB2D04C3FD
:10140000E49AFA755301C3E464808AF063F080952E
:10141000F050297557038A0374F62557401C05536D
:10142000E55714245CF8E557245CF98704A6047793
:101430002E1BEBFA6004055780DE8B02EA30E70DC5
:10144000785D8603785EA603785D762E0AE55560A2
:101450000AE55504FB2553F5538005300C0205536E
:10146000785C8603E4BB2D0104FB70062007033083
:101470000802055330050302152E300657EB600CA9
:1014800075822DC00212135ED002801C30070C75CD
:10149000822BC00212135ED002800D30080A7582C2
:1014A00020C00212135ED002785D8604BC2E0C753B
:1014B0008230C00212135ED0021554AC541554C3CE
:1014C000E5539C4003021572758230C00212135E10
:1014D000D00280E7AC541554C3E5539C500C758280
:1014E00020C00212135ED00280EA785C8604BC2D14
:1014F0000C75822DC00212135ED002801C30070CC6
:1015000075822BC00212135ED002800D30080A755E
:101510008220C00212135ED002785D8604BC2E5277
:10152000758230C00212135ED00215548044EB6005
:101530000E75822DC00212135ED002155480203029
:10154000070E75822BC00212135ED0021554800F55
:1015500030080C758220C00212135ED00215547838
:101560005D8603BB2E0C758230C00212135ED00262
:101570001554755701C20EE557245CF88603BB4528
:101580000302162FBB2E348A03C3E464808BF063FE
:10159000F08095F0500F758230C00312135ED003B7
:1015A0001B8B0280E48B02D20EE5557038200C03B1
:1015B00002162F75822E12135E8074300E278A0356
:1015C000EB30E71FC3E464808555F063F08095F04D
:1015D000500C758230C00312135ED00315550B8B6F
:1015E0000280DD8B02300E0EC3E464808555F0630B
:1015F000F08095F05021E557245CF886038B82C07B
:101600000212135ED002300E0EE557245CF88603FA
:10161000BB2E02800215551554C3E464808555F035
:1016200063F08095F04003200E050557021577C33F
:10163000E464808555F063F08095F0500A7582303F
:1016400012135E155580E830050FAA541554EA6050
:101650000875822012135E80F122E5557003300C6C
:101660000D74072555FAE554C39AF5548006E554E0
:1016700024FAF554755700785C8602BA2B0F2007C0
:101680000C785C7620200805755701055420051953
:10169000AA54C3E464808AF063F08095F0500A7520
:1016A000822012135E155480E7C20EE557245CF8C1
:1016B0008602BA00028069BA451F3001027665C30E
:1016C000E464808555F063F08095F0500A758230AF
:1016D00012135E155580E8D20EC3E5579402E43329
:1016E000FA7014EA700EC3E464808555F063F080EC
:1016F00095F04003300E16E557245CF886028A8286
:1017000012135EE55724FD50121555800E7402B574
:101710005709300C0675822E12135E05570216AB60
:10172000300519AA54C3E464808AF063F08095F010
:10173000500A75822012135E155480E72285824A72
:1017400085834BE4F551F552AA58AB59AC5A8A82BD
:101750008B838CF0120E33FD74012AF558E43BF5AF
:10176000598C5AEDFA7003021CE3BA250280030279
:101770001CDBC205C206C207C208C209C20AC20BEC
:10178000C20CC202C203C2047553007554007555E1
:10179000FFAB58AC59AD5A8B828C838DF0120E334F
:1017A000FAA3AB82AC838B588C598D5ABA25078A21
:1017B0008212135E80928A06BE3000402E8A06EEA8
:1017C00024C6402774FFB55513E55475F00AA4FEEE
:1017D000EA24D02EF55470BFD20680BBE55575F0D3
:1017E0000AA4FEEA24D02EF55580ACBA2E0A74FF66
:1017F000B555A4755500809F8A06BE6100400E8ACB
:1018000006EE248540075302DFD2018002C201BAEE
:1018100020028075BA2303021898BA2A0302189D81
:10182000BA2B02805FBA2D028055BA4202805FBA9D
:1018300043030218E2BA4403021A1DBA4503021A0E
:1018400037BA4603021A33BA4703021A3BBA4903AE
:10185000021A1DBA4C02803BBA4E03021A3FBA4F1D
:1018600003021A24BA50030219B6BA530302190626
:10187000BA5503021A29BA5803021A2E021A69D25B
:1018800005021797D207021797D208021797D20AB4
:10189000021797D20B021797D20C02179774FFB555
:1018A0005520300A0BE55B14F8885B8654021797C5
:1018B000E55B24FEF8885B8606088607188E5402CE
:1018C0001797300A0BE55B14F8885B86550217976B
:1018D000E55B24FEF8885B8606088607188E5502AD
:1018E0001797300A0AE55B14F8885B8602800FE5DB
:1018F0005B24FEF8885B8603088604188B028A82C4
:1019000012135E021A6EE55B24FDF8885B860308FD
:10191000860408860518188B4C8C4D8D4E8B828C56
:10192000838DF0121E76AB82AC838B5674FFB55557
:101930000385565520051DC3E55695545016E554AC
:10194000C39556F554AB541554EB600875822012BC
:10195000135E80F1854C82854D83854EF0120E33E7
:10196000FBFA6029AB551555C3E464808BF063F036
:101970008095F050188A8212135EAB4CAC4DAD4E80
:101980000BBB00010C8B4C8C4D8D4E80C72005038A
:10199000021A6EC3E55695544003021A6EE554C30D
:1019A0009556F554AB541554EB7003021A6E7582BC
:1019B0002012135E80EEE55B24FDF8885B86030849
:1019C000860408860518188B4C8C4D8D4EE54EFB11
:1019D00030E7047A438013EB546060047A50800A45
:1019E000EB30E6047A4980027A588A82C0021213E8
:1019F0005E75823A12135E75823012135E758278BC
:101A000012135ED002BA4902800BBA5002800685DA
:101A10004D82121391854C821213918051D2097517
:101A2000530A804A755308804575530A80407553A0
:101A300010803BD2028037D2038033D204802FE55E
:101A40005B24FDF8885B8603088604088605181861
:101A50008B4C8C4D8D4E8B828C838DF0E551121CFE
:101A6000FFA3E552121CFF80058A8212135E20023A
:101A700006200303300470E55B24FCF8885B8603D2
:101A80000886040886050886061818188B4C8C4DA5
:101A90008D4E8E4FE54CE54DE54EE54F8B828C83A8
:101AA0008DF0EE121D5774FFB555037555063004C1
:101AB00027747F554FFB8B50E550EB2BFB8B50E58C
:101AC0004E30E70674014550F550E5502468400655
:101AD000749925504002D20330030612165A021799
:101AE000481213E7021748E55370030217487B6159
:101AF000300A2BE55B14F8885BE6FC3395E0FDFECD
:101B0000FF8C4C8D4D8E4E8F4F20095EAC4C7D006E
:101B10007E007F008C4C8D4D8E4E8F4F804C300B55
:101B20001FE55B24FCF8885B8604088605088606AA
:101B30000886071818188C4C8D4D8E4E8F4F802AB2
:101B4000E55B24FEF8885B860408860518ED33956E
:101B5000E0FEFF8C4C8D4D8E4E8F4F20090CAC4C0F
:101B6000AD4D7E007F008E4E8F4F300C43E54C45CF
:101B70004D454E454F60397408B5530C758230C0E1
:101B80000312135ED00380287410B553237582307E
:101B9000C00312135ED00330010C758278C00312AB
:101BA000135ED003800A758258C00312135ED003FF
:101BB000300925AC4CAD4DAE4EE54FFF30E717C3B5
:101BC000E49CFCE49DFDE49EFEE49FFF8C4C8D4D67
:101BD0008E4E8F4F8002C209755600D20D8B007554
:101BE0005000C0001213A8D000200D0DE550C4FC19
:101BF000E6FD4CF61888038002A6500556B20DE5A6
:101C00004C454D454E454F70D68803E554700375DD
:101C1000540120061A200517E55604FCC3955450BC
:101C20000E758220C00312135ED003155480E93074
:101C3000090E75822DC00312135ED0031554802443
:101C4000E556602030070E75822BC00312135ED05C
:101C5000031554800F30080C758220C00312135EE8
:101C6000D003155420051EAC541554C3E5569C50A2
:101C7000273006047C3080027C208C82C003121343
:101C80005ED00380E2C3E55695545009E554C395F0
:101C900056F55480037554008B00AB561556EB6017
:101CA00022B20D200D0A08E6C4540FFB8B508007AA
:101CB0008603740F5BF550855082C000121378D0F4
:101CC0000080D7200503021748AB541554EB70036E
:101CD00002174875822012135E80EE8A8212135E0C
:101CE00002174885518285528322AA82BA0A0810B7
:101CF000990280FB75990D10990280FB8A99222028
:101D0000F71030F6118883A88220F507F6A88375AE
:101D1000830022F280F7F022FCABF0AA83A9827440
:101D20009EF582C2D1EC30E716D2D1E9F42401F954
:101D3000EAF43400FAEBF43400FBECF43400FC1267
:101D400012A0021251AA82AB83A2F73392D1600291
:101D5000D2F7F582ACF022C0E0F84582458345F029
:101D60007009F5F0FBFCFDFE021E25E823A2F792A8
:101D7000E0F8A982AA83D2F7ABF07C007E07C37497
:101D80009798404074FF2EFE740A89F0A4F985F0FC
:101D900082740A8AF0A4FA85F083740A8BF0A4FB9B
:101DA000740529F9EA3582FAEB3583FB740035F0C6
:101DB000FCC3EC13FCEB13FBEA13FAE913F908EC90
:101DC00070EF80BAE8C3947FF88B838EF0E4FBFC5D
:101DD000FDFEFF08C3E933F9EA33FAE58333F583FF
:101DE000EB3BD4FBEC3CD4FCED3DD4FDEE3ED4FE0D
:101DF000EF3FD4FF602D05F074052BD4FBE43CD4F9
:101E0000FCE43DD4FDE43ED4FEE43FD4FF758204FF
:101E1000C3EF13FFEE13FEED13FDEC13FCEB13FB0E
:101E2000D582EDD8AF785CD0E020E704762B800235
:101E3000762D087906E7C4540F4430F608B9060336
:101E4000762E08E7540F4430F60819B902E77645B4
:101E500008E5F020E704762B8004762DF40408755D
:101E6000F00A844430F608E5F04430F608E4F690D1
:101E7000005C75F04022AA82AB83ACF07D007E004E
:101E80008A828B838CF0120E33FFA3AA82AB83EF7E
:101E900060070DBD00EA0E80E78D828E8322000070
:00000001FF
