:020000040800F2
:1000000000200020B9000008410B0008550B000833
:1000100000000000000000000000000000000000E0
:10002000000000000000000000000000410B00087C
:100030000000000000000000410B0008410B000818
:10004000410B0008410B0008410B0008410B000860
:10005000410B0008410B0008410B0008410B000850
:1000600000000000410B0008410B0008410B000894
:10007000410B0008410B000800000000410B000884
:1000800000000000410B000800000000000000001C
:10009000410B000800000000410B0008410B000864
:1000A000410B0008410B0008410B0008CD0D000872
:1000B000410B0008410B000800F0BEFC00F080FC82
:1000C000E1235B02180000F0D9FD62B6C04600F0E3
:1000D00013F9024B180000F041FFFEE7C86C00085E
:1000E00080B500AF0A4B0B4A5A60094B00229A6058
:1000F000074B05221A60C046054B1A6880235B0235
:100100001340F9D0024B00221A60C046BD4680BDA4
:1001100010E000E0FF7C000080B582B000AF7860A6
:1001200001E0FFF7DDFF7B685A1E7A60002BF8D1F3
:10013000C046C046BD4602B080BD80B500AF204B72
:10014000DA6A1F4B01210A43DA62A023DB051A6831
:10015000A023DB051B490A401A60A023DB05DA68EF
:10016000A023DB0517490A40DA60A023DB05DA6823
:10017000A023DB05802149020A43DA60104B9A6B09
:100180000F4B01210A439A638023DB051F229A62E9
:100190008023DB050C4ADA628023DB050022DA606B
:1001A0008023DB0500225A628023DB051A68802346
:1001B000DB0501210A431A60C046BD4680BDC0462A
:1001C00000100240FFFFFCFFFFFF000080B582B07F
:1001D00000AF00237B608023DB0500225A6207E02A
:1001E0008023DB055B6A404A934201D9002376E015
:1001F000A023DB051A6980235B001340F0D0802325
:10020000DB0500225A6207E08023DB055B6A364A81
:10021000934201D9002362E0A023DB051A69802301
:100220005B001340F0D172B6C0464EE08023DB0580
:1002300000225A6205E08023DB055B6A2B4A934269
:1002400047D8A023DB051A6980235B001340F2D056
:100250008023DB055B6A9BB21900254B7A6892000C
:10026000D1508023DB0500225A6212E08023DB0597
:100270005B6A1E4A93420CD98023DB055B6A9BB202
:1002800019001C4B7A689200D1507B6801337B6067
:1002900022E0A023DB051A6980235B001340E5D12F
:1002A0008023DB055B6A9BB21900124B7A689200CF
:1002B000D1507B6801337B607B685A1E0D4B9200E6
:1002C000D258FA23DB009A4205D27B68272BADDD9A
:1002D00002E0C04600E0C04662B6C0467B68180037
:1002E000BD4602B080BDC046A086010050C30000DC
:1002F000CC01002070020020F0B5C9B000AF01228F
:100300005242D317C02138268919C9190A604B6097
:1003100000220023B8218919C9190A604B603C23C7
:10032000FB1818009C231A00002103F0B5FD0023E0
:10033000E4229219D21913600023E0229219D219F3
:100340001360FFF7FAFEFA235B001800FFF7E4FEE4
:10035000E34B180003F0EEFCE24B180003F0EAFC5C
:100360009B235A00E04B1100180003F06DFCFFF7CF
:100370002DFF0300AC2238201118C9190B600100B1
:100380005318DB191B68262B08DC5318DB191A6875
:10039000D64B1100180003F057FC00E3B8263820B4
:1003A0003318DB19186859680122002312184B41D1
:1003B00038203118C9190A604B6000220023B0218F
:1003C0000918C9190A604B600023C8221218D219F3
:1003D000136040E0C64AC82138200B18DB191B689F
:1003E0009B009A589B235B009A422BD90B18DB1970
:1003F0001A682623991A0A00203A002A03DB0123EF
:100400009340FB6204E020235A1A0123D340FB628D
:1004100001238B40BB62B02038268319DB191B688F
:10042000B96AFA6A0E001E43BE60B42338269B19CF
:10043000DB191B681A43FA608319D919BA68FB687B
:100440000A604B60C82238215318DB191B6801333E
:100450005218D2191360C82338215B18DB191B68A6
:10046000262BB7DDB0204318DB191A68C026731895
:10047000DB191B685A403A60B4235A18D219126823
:10048000C4213823C918CB191B685A407A60A022AE
:100490003823D118C9193A687B680A604B60B822C2
:1004A0003823D118CA191168B42338229B18DB19D4
:1004B0001B681B003B6200237B623A6A3823C0182A
:1004C000C3191B688B4803F0BFFB3822B318DB1934
:1004D0001B68013305D1C4218B18DB191B6801335C
:1004E0001CD0A02338215B18DB191A68A4235B18E1
:1004F000DB191B681A4311D0C4230A009B18DB19AF
:100500001B681B00BB610023FB61B969C0239B18FA
:10051000DB191B6878481A0003F096FB774B18002C
:1005200003F008FC764B180003F08EFB0023C82272
:1005300038215218D21913604CE0C82338201B18F8
:10054000DB191A682623991A0A00203A002A06DBCA
:10055000B4231B18DB191B68D3403B6313E0202333
:100560005A1AB42338201B18DB191B6893401A0051
:10057000B0231B18DB191B68CB403B633B6B9C46CD
:10058000944463463B63B42338201B18DB191B6873
:10059000CB407B633A6B01231A4011003C23FA18CD
:1005A000C8263318DB191B689B0099503C23FA18A6
:1005B0003318DB191B689B009A58524B1100180026
:1005C00003F042FB38203318DB191B680133321863
:1005D000D2191360C82338269B19DB191B68262BF8
:1005E000ABDD464B180003F0A5FBC0239B19DB19BC
:1005F0001B68013305D1C4239B19DB191B68013328
:1006000062D0A02338269B19DB191A68A4239B19F2
:10061000DB191B681A4357D03B4B180003F014FB3F
:100620000023C8229219D219136042E0C82338204F
:100630001B18DB191A682623991A0A00203A002A87
:1006400006DBA4231B18DB191B68D3401C000FE03A
:1006500020235A1AA42338201B18DB191B68934047
:100660001A00A0231B18DB191B68CB401C001419AF
:10067000A42338229B18DB191B68CB401D000123E3
:1006800023403B6100232B407B6139697A690B0071
:10069000134301D05E2300E02023180003F0EAFAA0
:1006A000C82238215318DB191B6801335218D2199C
:1006B0001360C82338229B18DB191B68262BB5DD75
:1006C0000E4B180003F036FB104B180003F0BCFA79
:1006D0000023C82238215218D21913602DE0C046D9
:1006E000AC6B0008D46B0008046C00081C6C00089C
:1006F00070020020386C0008546C0008746C00080C
:10070000786C0008846C0008886C0008946C000801
:10071000A34AC8263823F118CB191B689B009A58A6
:10072000A04B1100180003F08FFA3822B318DB1920
:100730001B680133B218D2191360C82338269B19DD
:10074000DB191B68262BE3DD974B180003F0F2FA48
:10075000B0239B19DB190CCBC0218919C9190A6078
:100760004B600023E42231005218D2191360002399
:10077000E0225218D21913603C22BB181B68002BD0
:1007800000D1F4E5BB185B68002B00D1EFE5BB1886
:100790009B68002B00D1EAE5BB18DB68002B00D07A
:1007A000E5E5BB181B69002B00D0E0E50C23DC223B
:1007B0005218D21913600023D8225218D21913608C
:1007C00028E03C23FA18DC2138268B19DB191B683A
:1007D0009B009A58D8208319DB191B689A40E4269D
:1007E0003823F318DB191B689B183822B618F21946
:1007F000136038228B18DB191B68013B16008A181E
:10080000D219136032008318DB191B680133821878
:10081000D2191360DC2238215318DB191B68042B12
:10082000CFDC14235218D21913600023D822521897
:10083000D219136028E03C23FA18DC2138268B19E2
:10084000DB191B689B009A58D8208319DB191B6899
:100850009A40E0263823F318DB191B689B183822CE
:10086000B618F219136038228B18DB191B68013B8C
:1008700016008A18D219136032008318DB191B681E
:1008800001338218D2191360DC2338201B18DB19BE
:100890001B680C2BCFDC3C217A188823D358002B03
:1008A00019D07A188C23D358002B14D17A1890239E
:1008B000D358002B0FD17A189423D358002B0AD188
:1008C0007A189823D358002B05D10123D42212186B
:1008D000D219136005E00023D42238215218D2190E
:1008E0001360D42338269B19DB191B68002B49D0D1
:1008F000E4239B19DB19186802F070FC00222B4BD3
:1009000001F05AFA02000B00100019000022284BD7
:1009100001F06AFD02000B00100019000022254BB7
:1009200002F01AF802000B001000190002F01EFC81
:100930000300D0229219D2191360E0239B19DB190E
:10094000186802F04BFC0022184B01F035FA020047
:100950000B00100019000022174B01F045FD0200AA
:100960000B00100019000022124B00F011FE0200D3
:100970000B001000190002F0F9FB0300CC229219C1
:10098000D2191360CC2338215B18DB191A68D023E5
:100990005B18DB191968094B180003F055F9E6E4F8
:1009A00070020020A06C0008A86C0008008056406F
:1009B0000000594000004940000059C0AC6C0008DC
:1009C00080B582B000AF164B7B60164B3B6007E0F2
:1009D0007A68131D7B603B68191D396012681A60C4
:1009E0003A68114B9A42F3D304E03B681A1D3A600F
:1009F00000221A603A680D4B9A42F6D30C4B3B60CA
:100A000004E03B681A1D3A601B6898473A68094B36
:100A10009A42F6D3C046C046BD4602B080BDC0462D
:100A20002471000800000020CC01002014050020E3
:100A3000247100082471000880B500AF3B4B1A6890
:100A40003A4B01210A431A60C046384B1B68042206
:100A50001340FAD0354B0122DA60C046334BDB68D5
:100A60000C221340042BF9D1314B1A68304B022170
:100A70000A431A602E4B1A682D4B01210A431A6053
:100A80002A4B9A6B294B802149050A439A63294BCB
:100A9000802212011A60C046264B5B681022134068
:100AA000FAD1224BDA68214B23490A40DA601F4B06
:100AB000DA681E4B8821C9030A43DA601B4A1B4BC4
:100AC000D268DA60194A194BD268DA60174A174BB4
:100AD000D268DA60154B1A68144B18490A401A603C
:100AE000124B1A68114B802149040A431A60C04610
:100AF0000E4B1A6880239B041340F9D00B4BDA6825
:100B00000A4B03218A43DA60084BDA68074B03215A
:100B10000A43DA60C046054BDB680C2213400C2BFD
:100B2000F9D1C046C046BD4680BDC0460010024057
:100B30000020024000700040FFFF02FFFFFFFFFEA9
:100B400080B500AF024B180000F008FAFEE7C0467F
:100B5000F06C000880B500AF024B180000F0FEF901
:100B6000FEE7C046206D000890B585B000AF786004
:100B70003960184B1B68002B02D101235B4224E033
:100B80000023FB600AE0FB685A1CFA603A68D4183C
:100B9000114B180000F0ADF9030023707B68013B96
:100BA0001A00FB68934205D20B4B180000F0CCF9F9
:100BB000031EE8D1FB68002B06D03A68FB68D31807
:100BC00000221A70FB6800E000231800BD4605B043
:100BD00090BDC046AC0300201403002080B584B053
:100BE00000AF78603960224B1B68002B02D10123D3
:100BF0005B4238E07B683F2B0BDCC0461D4B180086
:100C000000F0A2F903004022D21A7B689A42F5D381
:100C100002E002235B4226E00023FB600BE03A681F
:100C2000FB68D3181A78134B1100180000F030F944
:100C3000FB680133FB607B68FA689A42EFD30E4B86
:100C40001B68082213400DD10B4B1A680A4B082170
:100C50000A431A60074B180000F04BF903001A0012
:100C6000054B9A6200231800BD4604B080BDC04603
:100C7000AC030020600300200038014080B584B040
:100C800000AF786072B6C046454B00229A64444B70
:100C90009A6C434B5A64424B5A6C414B1A64414B19
:100CA00000229A643F4B9A6C3E4B5A643D4B5A6CFF
:100CB0003C4B1A643C4B01221A603C4B00221A60E8
:100CC0003B4BDA6A3A4B01210A43DA62394BFB604B
:100CD0007968F86800F070FB0300FB60A023DB0577
:100CE0009A68A023DB058021C9020A439A60A023E9
:100CF000DB055A68A023DB052F490A405A60A02370
:100D0000DB051B682D4A1A40A023DB05802109035F
:100D10000A431A60A023DB055A6AA023DB054021A1
:100D20000A435A62A023DB051B68254A1A40A02308
:100D3000DB05802189030A431A60A023DB055A6A78
:100D4000A023DB058021C9000A435A62184B5A6B65
:100D5000174B8021C9010A435A631A4B1A68194B71
:100D60006C210A431A60174B00225A60154B00226F
:100D70009A60144BFA68DA60124B1A68114B012121
:100D80000A431A60104B1A680F4B802109050A4369
:100D90001A6062B6C046C046BD4604B080BDC046BB
:100DA0001403002060030020AC030020B0030020E7
:100DB000001002400048E801FFFDFFFFFFFFF3FFC6
:100DC000FFFFCFFF0038014000E100E080B500AF39
:100DD000084BDB698022134001D000F025F8054B59
:100DE000DB692022134001D000F006F8C046BD4662
:100DF00080BDC0460038014080B500AF074B5B6A3C
:100E0000DAB2074B1100180000F042F8031E02D0BE
:100E1000044B01221A60C046BD4680BD0038014027
:100E200014030020B003002080B500AF164B18005B
:100E300000F08AF8031E08D0134B180000F059F890
:100E400003001A00114B9A621BE0104B1A680F4BFB
:100E500008218A431A600D4BDB694022134005D0FC
:100E60000A4B1A6A094B40210A431A62074BDB6995
:100E70008022134005D0054B9A69044B10210A4388
:100E80009A61C046BD4680BD600300200038014025
:100E900080B582B000AF78600A00FB1C1A707B68D6
:100EA0001A6C7B685B6C9A4205D17B689B6C002B4B
:100EB00001D0012319E072B6C0467B681B6C591C37
:100EC0007A6811647A68F91C0978D1547B689B6C44
:100ED0005A1C7B689A647B681B6C402B02D17B6830
:100EE00000221A6462B6C04600231800BD4602B054
:100EF00080BD80B584B000AF78607B689B6C002BB0
:100F000001D100231CE072B6C0467B685B6C591CA3
:100F10007A6851640F22BA187968CB5C13707B68C9
:100F20005B6C402B02D17B6800225A647B689B6C0F
:100F30005A1E7B689A6462B6C0460F23FB181B7862
:100F40001800BD4604B080BD80B582B000AF7860A7
:100F50007B689B6C1800BD4602B080BD80B582B036
:100F600000AF78600B4B1B68002B09D101235B425B
:100F70000BE07B685A1C7A6019000120FFF72EFEF7
:100F80007B681B78002BF4D100231800BD4602B00B
:100F900080BDC046AC03002080B582B000AF020027
:100FA000FB1D1A70FB1D19000120FFF717FEC0463C
:100FB000BD4602B080BD80B500AF044B1800FFF7FE
:100FC00098FF03001800BD4680BDC04614030020F2
:100FD000B0B584B000AF786039601E4B1B68002B41
:100FE00002D101235B4231E00023FB600B23FB189D
:100FF00000221A7017E0C046174B1800FFF7A4FF35
:10100000031EF9D00B257C19134B1800FFF771FF55
:1010100003002370FB685A1CFA601A007B689B1857
:101020007A1912781A703B68013BFA689A4204DA1E
:101030000B23FB181B780D2BDDD1FB68002B04DD87
:10104000FB687A68D31800221A70FB681800BD4646
:1010500004B0B0BDAC0300201403002090B583B0F1
:1010600000AFFC1DFFF7A7FF03002370FB1D1B78DB
:101070001800FFF791FFFB1D1B781800BD4603B059
:1010800090BDB0B584B000AF78603960214B1B686B
:10109000002B02D101235B4237E00023FB600B23CE
:1010A000FB1800221A701DE0C0461B4B1800FFF70A
:1010B0004BFF031EF9D00B257C19174B1800FFF7C7
:1010C00018FF030023702C003B191B781800FFF752
:1010D00063FFFB685A1CFA601A007B689B183A1978
:1010E00012781A703B68013BFA689A4204DA0B23C3
:1010F000FB181B780D2BD7D1FB68002B04DDFB6898
:101100007A68D31800221A70FB681800BD4604B034
:10111000B0BDC046AC0300201403002080B582B0EF
:1011200000AF7860FEE780B582B000AF7860012341
:101130005B421800BD4602B080BD80B584B000AFF0
:10114000F860B9607A60044B0C221A6001235B429C
:101150001800BD4604B080BDC003002080B500AFBC
:10116000034B0B221A6001235B421800BD4680BD71
:10117000C003002080B582B000AF786039603B6862
:10118000802292015A6000231800BD4602B080BD43
:1011900080B500AF01231800BD4680BD80B582B088
:1011A00000AF78603960044B16221A6001235B425D
:1011B0001800BD4602B080BDC003002080B582B0DB
:1011C00000AF78603960044B1F221A6001235B4234
:1011D0001800BD4602B080BDC003002080B584B0B9
:1011E00000AFF860B9607A6000231800BD4604B013
:1011F00080BD80B582B000AF786039603B688022E6
:1012000092015A6000231800BD4602B080BD80B52F
:1012100082B000AF786001235B421800BD4602B087
:1012200080BD80B582B000AF7860044B02221A60A6
:1012300001235B421800BD4602B080BDC003002000
:1012400080B582B000AF7860044B0A221A60012397
:101250005B421800BD4602B080BDC046C0030020FE
:1012600080B582B000AF78607B68022B01D8012383
:1012700003E0044B09221A6000231800BD4602B0A7
:1012800080BDC046C003002080B586B000AF786046
:10129000124B7B61124B3B61124B1B68002B02D13E
:1012A000104B7A691A600F4B1B68FB600D4B1A6874
:1012B0007B68D3183A699A4205D20B4B0C221A600C
:1012C00001235B4206E0074B1A687B68D218054B86
:1012D0001A60FB681800BD4606B080BD14050020EA
:1012E00000100020BC030020C003002080B588B09F
:1012F00000AFF860B9607A600023BB61FB68002B27
:1013000022D10023FB611AE0FFF755FE03001A000B
:1013100017217B181A70BB685A1CBA607A181278A9
:10132000D2B21A70BB690133BB617B181B78DBB288
:101330000A2B01D1BB690EE0FB690133FB61FA693D
:101340007B689A42E0DB05E0054B09221A60012325
:101350005B4200E0BB691800BD4608B080BDC046D6
:10136000C003002080B586B000AFF860B9607A6035
:10137000FB68013B012B11D800237B6109E0BB68AE
:101380005A1CBA601B781800FFF706FE7B69013310
:101390007B617A697B689A42F1DB05E0054B0922A3
:1013A0001A6001235B4200E07B681800BD4606B06E
:1013B00080BDC046C003002003460B437FD40022FB
:1013C00043088B4274D303098B425FD3030A8B42D9
:1013D00044D3030B8B4228D3030C8B420DD3FF2243
:1013E000090212BA030C8B4202D31212090265D011
:1013F000030B8B4219D300E0090AC30B8B4201D3C4
:10140000CB03C01A5241830B8B4201D38B03C01A0A
:101410005241430B8B4201D34B03C01A5241030B81
:101420008B4201D30B03C01A5241C30A8B4201D332
:10143000CB02C01A5241830A8B4201D38B02C01ADD
:101440005241430A8B4201D34B02C01A5241030A54
:101450008B4201D30B02C01A5241CDD2C3098B4239
:1014600001D3CB01C01A524183098B4201D38B01B6
:10147000C01A524143098B4201D34B01C01A524159
:1014800003098B4201D30B01C01A5241C3088B429E
:1014900001D3CB00C01A524183088B4201D38B0089
:1014A000C01A524143088B4201D34B00C01A52412B
:1014B000411A00D201465241104670475DE0CA0F02
:1014C00000D04942031000D34042534000229C46C2
:1014D00003098B422DD3030A8B4212D3FC228901CC
:1014E00012BA030A8B420CD3890192118B4208D3A2
:1014F000890192118B4204D389013AD0921100E004
:101500008909C3098B4201D3CB01C01A5241830917
:101510008B4201D38B01C01A524143098B4201D344
:101520004B01C01A524103098B4201D30B01C01A6F
:101530005241C3088B4201D3CB00C01A52418308E9
:101540008B4201D38B00C01A5241D9D243088B423F
:1015500001D34B00C01A5241411A00D201466346E2
:1015600052415B10104601D34042002B00D5494246
:10157000704763465B1000D3404201B5002000F085
:1015800005F802BD0029F8D016E770477047C0463D
:10159000F0B54746CE4680B583B0009001910E036A
:1015A0004D0001995F00CC0F710A009E6D0D760F02
:1015B0000E43009900920193C8001903019B7F0D0F
:1015C000DB0F9C464B0A0099490F1943009BDB0037
:1015D0009846EB1B644565D0002B14DD002F00D02E
:1015E000AEE00F004246174300D14DE15A1E012BD9
:1015F00000D1C9E2AF4FBB4200D121E2382A00DD61
:1016000058E2130061E1002B00D1A9E07B1B002D03
:1016100000D0D7E13400044300D18AE25C1E012BE4
:1016200000D125E3A34DAB4200D1CFE2382C00DC42
:101630007FE34246013A9146904592418E186446B6
:101640001D00320261D501235B4299469A4E30005B
:1016500001F082FE0300083B484620210700CA1A19
:10166000D7409E4098403A00814632430600AB4244
:1016700000DADDE1581B33000130091A8B40C64007
:101680005D1EAB4117008F4033431F43C2403B00F8
:101690001600134300D117E27B0700D05FE1A44698
:1016A000380082E0002B00DCCCE0002F00D08AE084
:1016B0000F004246174300D1E6E05F1E012B00D128
:1016C00046E27C4A934200D1BAE1382F00DCE0E2E6
:1016D000421C9146802212041D00164215D01600AD
:1016E000744B01359D421DD0744A012116404A4673
:1016F00053081140F7070B431F4376085B0709D0D7
:101700000F23B9463B40042B04D04B461F1D4F45C9
:101710009B41F61A330200D487E0664A01359542B0
:1017200000D085E02B00002600271B053343E4078B
:1017300023433800190003B0C0BCB946B046F0BD21
:101740005C4FBD4200D12EE2382B00DCBAE0431ED4
:101750009842804136189946330200D573E7D4E7A2
:10176000574F6B1C3B4200D04EE133000F00424606
:1017700003431743002D00D0E0E1002B00D119E214
:10178000002F00D11CE2821A9042AD41731A5B19FE
:101790001D0200D4E3E24346181A80459241070037
:1017A0008E1BB618374300D1F1E2644607000123CF
:1017B0003100804632023DD443464F07DA081743D2
:1017C0000023CD08F9E03B4FBD4200D138E1382B72
:1017D00000DD53E180273F0439431F2B00DD02E287
:1017E0002027FA1A0F00944697404246DA401743E2
:1017F000B9466246474697403A00D940571EBA411B
:101800004F4676183A431318834280419946361A58
:10181000330200D564E74A46530700D1BBE20F23E9
:101820001340042B00D070E74F462B00F8082CE043
:101830006B055B0D214AFF081640720776021743BD
:10184000360B72E7002B00D194E07B1B002D00D0FB
:101850001DE13500054300D14EE25D1E012B00D194
:101860003BE2144A934200D1D0E1382D00DC8CE2F7
:10187000424601329146802212041D001600114298
:1018800000D02DE70E0040E7C00872071043094A58
:10189000F508934200D08BE107002F4307D0802644
:1018A00036032E4336030700024B360B3DE7002676
:1018B000004B3AE7FF070000FFFF7F00FFFF7FFFBD
:1018C000FE07000080273F0439431F2B00DDBCE0EA
:1018D0002027FA1A0F00974094463A004746DF4007
:1018E0003A4391464746624697403A00D940571ED0
:1018F000BA414F46761A3A43831A98428041994634
:101900003618330287D57602760A002E00D09EE67E
:10191000484601F021FD030018331F2B00DC9BE635
:101920004A46083882409D4200DDA1E05B1B581CFE
:101930001F2800DC0FE217001F3BDF40202805D0E6
:1019400040231B1A9A40531E9A411743002F6CD014
:1019500007231900B84639403B4200D12CE70F233A
:101960003B40042B00D03BE10025033B320200D575
:1019700060E75AE7C84F6B1C3B4200D0B3E033002E
:101980000343002D00D055E10F0042461743002BC2
:1019900000D1C9E1002F00D112E1821882428041BA
:1019A0007618361A330200D5E0E1170037433CD0F1
:1019B0000023D20877071743F5082E035B05360B83
:1019C0005B0DB2E6B54CA74200D1FFE0382B7EDCC0
:1019D0008024240426431F2B00DD1DE12025340034
:1019E000ED1A0200A840AC40DA40451EA841DE4096
:1019F00014432043891B43461B1A9845924199463C
:101A000064463D008E187CE74346C71AB946B84283
:101A1000BF41731A7F42DB1B1F0200D580E04F4697
:101A20001E001F4300D070E70024002300267CE640
:101A30009B4EED1A16400200430700D0EFE6F3E696
:101A40007207C0081043F50826E71F000A00203F70
:101A5000FA409446202B05D04027FB1A9940434674
:101A60000B4398464246531E9A4163461A4343E746
:101A7000EB1A8B4D15406F07ED089EE7431C994606
:101A800080231B041E4200D13FE61E0028E6834D42
:101A9000AF4200D1BAE0382B00DC03E1434601330A
:101AA000994680231B043D001E00194200D017E612
:101AB0000E002AE6421E90428041361891461D00D3
:101AC000320200D5BFE520E6002700262DE643467A
:101AD000013B984592418E18994664463D00330279
:101AE00000D5B0E511E66D4DAB4200D11BE6424694
:101AF0008218824280417118091AC807520810439F
:101B000081464E08520700D148E10F221D000240D5
:101B1000042A00D0F9E5C208770717430D094CE7FE
:101B200043461B1A984592418E1B99466446B61847
:101B3000EBE6424664460E00D008A6E6002B00D035
:101B4000DEE0002F42D180260024544B3603ECE522
:101B500083188342804175182D1A2A0200D4C5E0EB
:101B60004F4A5B081540EA071A4369085B0700D132
:101B700019E10F231340042B00D100E1171D9742F8
:101B8000B64102258E1B50E64346C21A9042804160
:101B9000761A36189146330220D4D30877071F43AC
:101BA000F508012309E7C00873071843F50873E631
:101BB000070002E7002F00D136E764460E004046DA
:101BC000C008770700230743F508F6E643464807B1
:101BD000DA0864461043CD085EE66446012592E6C5
:101BE000B946002591E51F000A00203FFA409446BF
:101BF000202B05D04027FB1A994043460B439846BB
:101C00004246531E9A4163461A43FCE54346480741
:101C1000DA081043CD083FE61C003500203CE540C3
:101C2000202B03D04024E31A9E403043431E9841AA
:101C30002843E0E6002BE9D07307C008424618436A
:101C40000B00F508134300D126E680231B031D4239
:101C500006D0CE081E4203D13500D00849070843FC
:101C6000430FC000ED00C0085B071843ED0813E602
:101C700043461B1A984592418E1BB6189946190087
:101C80003302AAD4CB0877071F4364460123F50823
:101C900093E63B00A1E5C046FE070000FF070000F9
:101CA000FFFF7FFF80252D042E431F2B43DC2025C3
:101CB000EA1A3500944695400200DA401543624620
:101CC0009040DE40421E90418919284340444045DF
:101CD000924181463D008E1A9AE5030043444345F4
:101CE00092417518AD1A2A0200D539E76F07DB0853
:101CF0001F43ED08012360E642460E00D008C4E50C
:101D0000C00873071843F508002F00D1C4E58023ED
:101D10001B031D42A4D0CE081E42A1D1D008490702
:101D20006446350008439BE7002F00D044E50026B9
:101D3000FBE423004FE61D003200203DEA409446BC
:101D4000202B03D04025EB1A9E403043431E984180
:101D500063461843BAE720210023091A92E41700CA
:101D600010001E001F4300D02AE75DE6114BD20889
:101D70001E407707760201231743360BD5E4D708B8
:101D8000490702230F432D0917E62B008DE7644610
:101D900000230026C9E42B00D00876E57707C208A7
:101DA00017430D0909E6D208490711430F00022322
:101DB0002D0902E6FFFF7FFFF0B54546DE46574698
:101DC0004E460400E0B50D0089B0009401951F0057
:101DD000019B16001B03190B019A019BD20F5B009C
:101DE00080460C0093465B0D00D1C1E08E4A9342C1
:101DF00034D0009C019DC900620F0A438021090470
:101E00001143E2009046894A00249B189A46002319
:101E1000039100933B03190B7A0030008946520D61
:101E2000FD0F002A00D17FE07F4B9A426ED0C9009F
:101E3000730F0B4380210904194389467B49F30042
:101E4000521851468A1A924600215E466E400F2C67
:101E500000D9FBE0764AA400125997460A0000997F
:101E60000A43039200D0B7E09A4602239046082422
:101E70000093CFE72E0000210023002288461B0597
:101E80001343F60733434046190009B0F0BCBB4684
:101E9000B246A946A046F0BD039B5D46994643461F
:101EA0000099022900D1F5E1032900D1A1E001291F
:101EB000E0D054465F4AA4180494002C00DCFAE1F8
:101EC0005A0704D00F221A40042A00D076E22E00CE
:101ED000DA084946CB0107D5574B1940894680217E
:101EE0005346C9005B180493544B0499994208DC8B
:101EF000484643071343984642024B05120B5B0DBD
:101F0000BDE7002100228846474BB8E752460B0048
:101F10004B49334352189246002B58D102221443A6
:101F200000220221914690E70B00334349D000295B
:101F300000D19EE1080001F00FFA0B235B429C46A2
:101F40000200844411004846083988401D23814618
:101F500060461B1A3000D8400300484603439946A8
:101F600033008B40374952445218924600216CE7A7
:101F70000A0000990A4303921CD0002C00D168E1AA
:101F8000200001F0E9F902000B381D231B1A00980C
:101F900011002500D84008398D4003002B430393DE
:101FA000009B8B409846284B00249B1A9A4600239E
:101FB00000932FE7002398469A46013304240093A8
:101FC00028E7012214430022012191463DE7032323
:101FD00003211C43330038E79A46032303940093FC
:101FE0000C2417E700238022984600260E4B12038C
:101FF00045E78022494612030A43120398462E0001
:10200000094B120B3BE7802203991203114202D0C5
:1020100049461142F0D08022039B12031A43120357
:102020005E46014B120B2AE7FF07000001FCFFFF91
:10203000446D0008FF030000FFFFFFFEFE070000E5
:1020400001F8FFFFF30300000DFCFFFF0399894532
:1020500000D2F5E000D1F0E05246013A924600226B
:102060004446904603984A461F0E120217431B022D
:1020700003933B04110C1B0C00938B4601F068F991
:10208000009A0B044243210C050019438A4207D9E8
:10209000C919013D8F4203D88A4201D9851EC91949
:1020A000881A594601F054F9009A2404424309045D
:1020B000240C03000C43A24204D9E419013BA742BB
:1020C00000D8F2E00399A01A2D040C0C09041D435A
:1020D000090C2A0C2B04A9460D001B0C5D4307912B
:1020E00063435143069462435B182C0CE3189942F6
:1020F00002D9802149025218190C2D041B042D0C01
:102100008A185D19904200D284E000D17FE04346F6
:102110005D1BAB429B415446801AC018AD4BE4187E
:102120000494874200D1FBE0594601F011F9020006
:10213000009B05905A430B04290C19438A4209D984
:10214000431EC91905938F4204D88A4202D9831EBF
:102150000593C919881A594601F0FAF80A049446F9
:1021600003002A0465460099120C59432A43914200
:1021700007D9D219013B974203D8914201D9831E56
:10218000D219521A05990798090405000B43190C36
:102190008C461904090C4D4388466146AB4665469A
:1021A000484306994D43AC46454669435D46091888
:1021B0002D0C4919884202D98020400284445D4692
:1021C000080C2D0409042D0C60444D19824211D3D2
:1021D0000DD001221343804A92456DDB1A1D9A42AD
:1021E0009B41D2085B42CC469C44E14671E6002DFF
:1021F00000D193E0591EBA188C46BA4200D285E04D
:10220000824200D2C4E000D1D1E00B00E1E7A84552
:1022100000D37CE74B46013B04934346039C1B19C8
:102220009846A3429B41FB1AC018874238D282428B
:102230007DD87AD0049B994669E7434500D90BE7DE
:102240004146039AD40750084A081443CA079046E7
:1022500009E701F081F802000300153020321C2844
:1022600000DC92E60099083B9940002303919846D0
:1022700099E601F071F815239C46844402006346F8
:1022800020321C2B00DC5DE6310008388140002341
:10229000894667E600212E00002288464F4BEEE576
:1022A0008742C7D14445C5D8C1E7A24200D809E753
:1022B000831EE41906E72E002200373200DADAE541
:1022C00022001E323FDB4D46012250464449121B7C
:1022D00040181C00290083408140D440581E83418F
:1022E000D54021430B432A00590708D00F2119403C
:1022F000042904D0191D99429B41EA1A0B001102CE
:1023000063D50021012300228846B8E50B008242F4
:1023100000D05EE7039A954200D05AE73500CBE53E
:10232000002C41DD002201235DE7454582D94B4663
:10233000023B9946434603995B1898468B429B4162
:10234000FB1AC018E3E648461F2201005242121B46
:10235000D1401F3404D05246224C121990400343FE
:102360005A1E934107200B430100002219401842D6
:1023700009D00F21194004291ED0181D9842894107
:10238000030049424907DB080B439846002376E5E2
:102390000399023B49008C4603998C458941791A7F
:1023A000521861460391B2E701235B4284E7039927
:1023B000A942EDD36346ADE70021E4E71A1D9A4236
:1023C0009B412E005B42D2080DE751075202120BCF
:1023D000D9E7C046FF03000002FCFFFFFF07000033
:1023E0001E0400003E040000F0B557464E46454628
:1023F000DE46E0B50D0004001F000B03190B1600AC
:1024000087B06B00EA0F89469246009401955B0DF8
:1024100000D1B7E1D54A934200D11DE1C900420F76
:102420000A43802109041143C2009046D04A8946DC
:102430009B189B460023002502933C037A00FB0F68
:102440003000240B520D009300D170E1C74B9A422B
:1024500000D155E1DC46C64BD2189444E3460A2D20
:1024600000DD0AE1730FE4001C4380231B042343B7
:10247000F0005246009900264A409246022D11DD96
:102480000122AA40A6211400C9000C400A4200D033
:10249000F3E0902189000A4200D0C4E18821114272
:1024A00000D0E5E041460C0C0904020C090C0F00B9
:1024B00015000004000C654347430395B8462F0000
:1024C0000D0006005543AC46454666432D0CB4440A
:1024D0006544AE4204D93E0080277F02F619039678
:1024E00047463F043F0C2E0C2D04ED1904951D0C9E
:1024F0001B041B0C00934B431F00009B6943634369
:102500009C463B0C6144C9186C438C4502D980231E
:102510005B02E4183F040B0C3F0C0904C919E418D2
:10252000731805934B461E04360C1F0C33004343AF
:102530009C463B00534302936346784372431B0C13
:102540001218D218904204D9802302985B02C01856
:102550000290029B100C1B18029363461804330070
:10256000000C1204121800986E4343439C4603006B
:1025700060467B436F43F618050CAD19AB4202D998
:1025800080235B02FF18039B059E2804F618634610
:102590008E4289411B041B0CC3181B194942581851
:1025A0008446B618A3429B418C458941964292418C
:1025B00002984942604400905B4252420B43009CA7
:1025C00002998018904292418C4289412D0C4942D7
:1025D00052420A435B199B18DB19C20D5B02049936
:1025E0001A43914672020A43511E8A41F60D164360
:1025F00031004202114308008846DB0156D45A4696
:102600005C4BD218002A00DC13E14B0716D00F21D7
:102610005B460140042911D04146081D40458941CF
:10262000CC4649428C44E14680464846C10105D526
:10263000514A104080228146D2009A184F4B9A424C
:1026400000DD25E1494643464C07DB081C435205A3
:102650004B021B0B520D1BE00A0000990A439046E7
:1026600000D0DAE09B460223914608250293E4E677
:10267000009A9946924680460296029B022B00D110
:1026800006E1032B33D0012B1AD1002200230024B2
:1026900012051A435346DB071A432000110007B006
:1026A000F0BCBB46B246A946A046F0BD01224B088D
:1026B0000A4049461343CA07134398464B089946B4
:1026C00080215A46C900531C5218002A00DCB1E090
:1026D00040464107A9D00F21014004299CD1A4E71D
:1026E0000F2D00D1F7E0009BA1469A46804680233B
:1026F0004A461B0313431B0344461C4A1B0BC7E7F4
:1027000059463300194E234389198B46002B72D149
:10271000022129430A29B0DC5046009C60408246D1
:10272000002D00D107E10D0000200226A8E62300BD
:10273000334351D0002C00D1BEE0200000F00CFE4D
:1027400002000B381D231B1A3000D8401100030073
:10275000300008398C408840234359468A1A08497A
:10276000521893460A2D00DC83E686E7FF07000037
:1027700001FCFFFFFF030000FFFFFFFEFE0700005C
:102780000DFCFFFF0A000B0000990A4390461CD085
:10279000002B00D180E0180000F0DEFD02000B38B5
:1027A0001D231B1A009811004D46D84008398D4052
:1027B00003002B439946009B8B409846624B0025B3
:1027C0009B1A9B460023029337E6002399469B46BB
:1027D00001330425029330E6012215430A2D00DD62
:1027E0004BE7524600994A409246022D00DC4CE7E6
:1027F0000020012644E603231D430A2D00DD6FE778
:102800005346009A882153400122AA409A46032643
:102810002300114200D145E62AE79B460323804668
:102820000C25029309E600239A468023474A1B039E
:102830002EE75B461100373100DA26E711001E3122
:1028400058DA48461F2104004942891ACC40210029
:102850001F3205D03E4A9B1898404246024390469C
:102860004246531E9A410A4307210C00002314409C
:10287000114209D00831114004295FD0111D914245
:10288000A4410A0064426407D20814430022FFE610
:10289000002300242D4AFBE600F05EFD0200030049
:1028A000153020321C2800DC7AE700218846009988
:1028B000083B9940894681E700F04EFD0200030085
:1028C000153020321C2800DC3CE73100083B9940E1
:1028D00000200B0041E780234A461B031A4200D127
:1028E00005E71C4200D002E7009A23439246040009
:1028F000164ACDE60121891A164A48469B184246D7
:102900009840CA40104342469A40531E9A414B4653
:102910000243CB40510708D00F211140042904D0B5
:10292000111D914292419B1A0A00190208D50122F9
:1029300000230024ACE600230024A9E60024A3E73A
:102940005C075B021B0B9FE70DFCFFFFFF0700000E
:102950003E0400001E040000F0B557464E464546B2
:10296000DE46E0B50C0383B0009201934D00CB0F1F
:10297000610A440F9846009A019B0C431903019B7E
:10298000C0005F007B0D9C46019B8346DE0F4B0A17
:1029900000996D0D490F1943009BDA00BF4B924619
:1029A00099469C456BD0012347465E406346EB1A2F
:1029B000B74216D0002B00DC91E26646002E00D014
:1029C0007AE00E00164300D132E15E1E012B00D1E9
:1029D00099E24B4500D1E5E1382E00DD23E23300DA
:1029E00036E1002B00DCE1E26646002E00D0F0E08C
:1029F0000E00164300D11BE15E1E012B00D152E2F6
:102A00004B4500D1CEE1382E00DC20E380221204B9
:102A10001D00471C144214D01400A04B01359D42E8
:102A20001CD001219E4A7B0814403940E0070B432B
:102A3000184364085B0709D00F2307000340042BE9
:102A400004D0381DB842BF417F42E419230200D4AC
:102A500021E1924A0135954200D0DFE02B000024AD
:102A6000002742461B052343D6073343380019008D
:102A700003B0F0BCBB46B246A946A046F0BD894BA8
:102A8000EF180B0013434DD0B0454FD0002F6DD041
:102A9000002D00D18BE1B0464807D2081043CD0885
:102AA00007002F4300D1CDE0802424032C432403CE
:102AB00007007A4B240BD4E74D4500D131E2382B87
:102AC00000DCC2E0471EB842804124182302B8D57A
:102AD0000127754C7F42200000F03EFC0300083BBC
:102AE00020213800CA1AD0409C4002009F40224357
:102AF000AB4200DA4FE1581B0130091A3C008F400D
:102B0000C4407B1E9F4113008B4027431F43C2409C
:102B10003B001400134300D18EE17B0700D0F6E0A8
:102B200038004AE001235E40B045AFD1002F00D10C
:102B3000F9E0002D00D071E163462500054300D186
:102B4000A6E25D1E012B00D1BBE2544FBB4200D177
:102B500064E1382D00DCFCE2571C802212041D00C9
:102B60001400114200D058E70C006AE74F4F6B1C6D
:102B70003B4200D0FFE00F00230017430343002D2A
:102B800000D080E1002B00D1D7E1002F00D1DBE1A4
:102B9000831A9C466045AD41631A5B191D0200D43F
:102BA000B9E2101A82429241012307000C1BA418BB
:102BB00033409846274300D1B8E1012321008246E3
:102BC00022022DD453464F07DB081F43CD080023B4
:102BD000CCE04D4500D1E5E0382B00DD16E1802743
:102BE0003F0439431F2B00DDB7E120260F00F61A02
:102BF000B740B2463E001700DF403E43370056461E
:102C0000B240D940561EB24164183A431718874261
:102C10008041241A230200D5FFE633E06B055B0DEB
:102C20001F4AC0081440670764020743240B18E7D3
:102C3000C00862071043194AE508934200D12FE704
:102C4000070093E00024154B0BE780273F0439432E
:102C50001F2B00DDC4E020260F00F61AB740B24655
:102C60003E001700DF403E4337005646B240D94091
:102C7000561EB241641A3A43871AB842804124185A
:102C8000230217D47B0700D165E20F233B40042BBE
:102C900000D0D6E638002B00C008CAE7FF070000C6
:102CA000FFFF7FFF01F8FFFFFFFF7F00FE0700002F
:102CB000B04601256402640A002C00D00BE73800FE
:102CC00000F04AFB030018331F2B00DC08E73A0032
:102CD000083882409D4200DD92E05B1B581C1F2893
:102CE00000DC14E217001F3BDF40202805D0402302
:102CF0001B1A9A40531E9A411743002F00D115E129
:102D000007231900BA4639403B4200D15AE70F2346
:102D10003B40042B00D01EE138000025033B22027B
:102D200000D57DE7B7E7CB4F6B1C3B4200D086E078
:102D300023000343002D00D05CE10F001743002B5C
:102D400000D1CCE1002F00D1FEE082188242804108
:102D50006418241A230200D5EAE11700274300D1A2
:102D6000E4E00023D20867071743E5082C035B055E
:102D7000240B5B0D75E6831A9C466045BF41631AC0
:102D80007F42DB1B1F0275D467461F4300D1D0E092
:102D90001C00674690E7B04CED1A14407B0700D04A
:102DA00073E777E76307C0081843E50878E66346EA
:102DB0002500054373D05D1E012B00D138E1A74FDC
:102DC000BB4200D167E6382D00DC8DE1571EBA42C8
:102DD00092418C18B0461D00220200D578E630E6FC
:102DE0001F000E00203FFE40202B04D04027FB1A7E
:102DF00099400A4392465246531E9A4132433BE75A
:102E0000EB1A954D15406F07ED08AFE780231B04C3
:102E1000471C1C4200D114E61C00FEE54807D208FE
:102E20001043CD083CE6471EB842804124181D00DF
:102E3000220200D54CE604E60027002411E6874D67
:102E4000AB4200D10BE68218824280416118081A19
:102E5000C707520817434408520700D47EE10F22E7
:102E60001D003A40042A00D0EBE5FF086407274321
:102E700005097BE70123171ABA4292410C1B334024
:102E80009846A41818E7002B00D004E1002F00D0CA
:102E900057E10023802498462403704BE1E5B046B7
:102EA0000C00D008C5E687188742804165182D1AA6
:102EB0002B0200D40DE1684B7A081D40EB07134349
:102EC0006F08520700D42DE10F221A40042A00D1C6
:102ED00028E1181D9842A44102253C1BDBE6002B8B
:102EE00000D143E663465B1B002D00D160E7382B21
:102EF00043DD571EBA4292418C18B0466546230204
:102F000000D5E5E59DE5871AB8428041641A24188A
:102F1000230200D5CDE66307FF081F43E508012320
:102F200024E7C00863071843E508B9E50023002437
:102F300097E500230024984693E5002FF9D001334C
:102F4000334098460C0093465B466707DB081F43F7
:102F5000E50800230AE7002573E51F000E00203F67
:102F6000FE40202B04D04027FB1A99400A4392468A
:102F70005246531E9A41324348E68025B0462D04FE
:102F80002C431F2B26DC20272500FF1A0600B84003
:102F9000BD40DE40471EB841DC4035432843091B95
:102FA000171ABA42924165468C1869E6002B00D187
:102FB000B9E663465B1B002D00D1BEE5382B4FDD23
:102FC00080231B0465461C00571C194200D024E5D1
:102FD0000C0036E51D002700203DEF40202B04D0DB
:102FE0004025EB1A9C40204383465846431E984197
:102FF0003843D5E7002B00D110E76307C00818431A
:103000000B00E508134300D14AE580231B031D4252
:1030100006D0CC081C4203D12500D008490708433C
:10302000430FC000ED00C0085B071843ED0837E50B
:10303000171ABA4292410C1BA418230200D537E696
:103040006307FF081F43B0460123E5088EE63300FF
:10305000C8E5C046FE070000FFFF7FFFFF07000036
:1030600080252D042C431F2B41DC20272500FF1A2F
:103070000600B840BD40DE40471EB841DC40354345
:103080002843091987189742924165468C1AC1E571
:103090000C00D008CDE5C00863071843E508002FF1
:1030A00000D1FDE480231B031D42B9D0CC081C4293
:1030B000B6D10123D008490733409846250008437C
:1030C000AEE78718974292416518AD1A2B0200D5DA
:1030D000F1E66B07FF081F43ED08012346E6002FCA
:1030E00000D06FE50024BCE4B0462B0049E71D008A
:1030F0002700203DEF40202B04D04025EB1A9C40B8
:10310000204383465846431E98413843BAE720215E
:103110000027091AF7E467461F4300D109E71C009E
:10312000E34611E7DB087F071F432D0902231DE655
:103130000D4BD2081C406707640201231743240B80
:103140008FE401234807D208334098461043CD0846
:10315000A6E42B0087E72B00F8086AE56407FF0860
:103160002743050902E6C046FFFF7FFFF0B50500D3
:103170000020144C0A034B00C90F0F008446120BA9
:103180005B0DA34205DD104CA34204DD0F4BC918B3
:103190008C466046F0BD8024640322430C4CA3425D
:1031A00007DCE41AE24053429C46002FF1D19446DA
:1031B000EFE72800074959188A400749CB1AD84039
:1031C0000243F0E7FE0300001D040000FFFFFF7F45
:1031D00013040000EDFBFFFF3304000070B500286E
:1031E00019D0C317C2185A40C40F1000150000F0C0
:1031F000B3F8134B1B1A5B055B0D0A2817DC0100A3
:1032000015310A00290095400B22121AD1400A03F9
:10321000AC46120B04E000210024002300228C465F
:103220001B051343E40723436046190070BD2A00C1
:103230000B388240002112038C46120BF0E7C04687
:103240001E040000002243088B4274D303098B4202
:103250005FD3030A8B4244D3030B8B4228D3030C66
:103260008B420DD3FF22090212BA030C8B4202D308
:103270001212090265D0030B8B4219D300E0090A30
:10328000C30B8B4201D3CB03C01A5241830B8B4239
:1032900001D38B03C01A5241430B8B4201D34B0322
:1032A000C01A5241030B8B4201D30B03C01A524187
:1032B000C30A8B4201D3CB02C01A5241830A8B420C
:1032C00001D38B02C01A5241430A8B4201D34B02F5
:1032D000C01A5241030A8B4201D30B02C01A524159
:1032E000CDD2C3098B4201D3CB01C01A524183090D
:1032F0008B4201D38B01C01A524143098B4201D347
:103300004B01C01A524103098B4201D30B01C01A71
:103310005241C3088B4201D3CB00C01A52418308EB
:103320008B4201D38B00C01A524143088B4201D318
:103330004B00C01A5241411A00D201465241104678
:103340007047FFE701B50020FEF720F902BDC04637
:103350000029F7D076E770471C2101231B0498420F
:1033600001D3000C10391B0A984201D3000A083916
:103370001B09984201D30009043902A2105C4018CD
:103380007047C04604030202010101010000000071
:1033900000000000F0B51F00002316008BB09F4214
:1033A00004DA802109067B181F002D23129A149C31
:1033B0001370202303229C43462C07D02300453B57
:1033C00059424B411099013ACB18109309AB049321
:1033D00008AB0393139B00920293109B320001935E
:1033E0003B0000F017FE0500472C1BD1119BDB07AB
:1033F00011D5109BC3180793002200233000390019
:1034000003F044FA002801D0079B09933022099B5E
:1034100007998B4220D32800099B159A5B1B1360E8
:103420000BB0F0BD109BC3180793462CE4D1037872
:10343000302B0CD1002200233000390003F026FA93
:10344000002804D10123109A9B1A139A1360139B2E
:10345000079A1B68D318CEE7591C09911A70D6E752
:10346000F0B52B2385B005000C1E027001DA4C422A
:1034700002336B70092C2EDDAB1C009302ABDE1DFA
:1034800020000A21FEF77EF837003031013E20008F
:1034900031700A210194FDF78FFF019B0400632B1B
:1034A000EEDCBA1E130030340099147002A8073005
:1034B00098420BD80023904203D3093302AA9B18E9
:1034C000DB1B009AD018401B05B0F0BD1878013303
:1034D00008700131EAE73023E418AB70281DEC7066
:1034E000F1E70000F0B597B00C001C9D0A920B9319
:1034F000099000F0DBFC036818000F9300F0F5FC66
:103500000023072210901493237E0E9323681193B7
:103510002B68073393430122C0CB2B607B005B08F1
:103520000D930C96A664E7640C980D99A34B524238
:1035300003F0F8FA002831D10C980D9901229F4B25
:10354000524203F0B3F9002828D1002200233000B2
:10355000390003F0A1F9002803D023002D224333C2
:103560001A70974B0C930E9B472B01D8954B0C93DD
:1035700003230025119A236101339A4322600B9B98
:103580002100009309980A9B15AA00F0D7F9013091
:1035900000D098E00120404217B0F0BD32003B005F
:1035A0003000390003F0BEFA00280CD0002F03DAF7
:1035B00023002D2243331A70834B0C930E9B472B11
:1035C000D6D8824BD3E720220E9D636895435A1CC0
:1035D00043D1073363608023119ADB001343002239
:1035E0002360069214AA05920E9A0AA9049213AABD
:1035F00003922322521802920193636832000093CF
:1036000009983B00FFF7C6FE13990C90472D2AD16D
:10361000CB1C02DB63688B4243DA0E9E023EF3B2A0
:103620000E9320000E9A013950301391FFF718FFC6
:10363000149A050013182361012A02DC2268D207BC
:1036400001D50133236123230AAA9B5C002B96D06A
:1036500023002D2243331A7091E7472DBBD1002B55
:10366000B9D10133B6E70E9B652BDAD90E9B662BD9
:1036700019D16368002909DD2161002B02D122687C
:10368000D2070BD501335B18236107E0002B03D170
:1036900001222068104200D09A1C22610025A165F9
:1036A000D1E767230E93149B8B4205DC23682161CD
:1036B000DB07F3D54B1CE7E70122002901DC921858
:1036C000521A9B18E0E72268530508D423690C9A24
:1036D0000A9909980B9DA847013029D15AE70E9BFA
:1036E000652B00D8D5E0A06CE16C0022002303F02C
:1036F000CDF8002833D00123354A0A9909980B9D4B
:10370000A847013000D145E7149E139BB34202DB6A
:103710002368DB070CD50B9D109B0F9A0A9909981B
:10372000A8470025013000D134E7731EAB420ADC04
:1037300023689B0700D5FFE0159BE068984200DBFB
:103740002AE7180028E7220001230A9909980B9F0D
:103750001A32B847013000D11CE70135E5E7139B69
:10376000834237DC01231A4A0A9909980B9DA8471E
:10377000013000D10EE7149E139B334302D123681E
:10378000DB07D5D50B9D109B0F9A0A990998A8477E
:103790000025013000D1FDE6139B5B42AB4201DC0A
:1037A000330094E7220001230A9909980B9F1A32EB
:1037B000B847013000D1EDE60135EDE7FFFFEF7FBF
:1037C000886D0008846D0008906D00088C6D0008FD
:1037D000946D0008149EA76DB74200DD3700002FDE
:1037E0002FDCFB430025DB173B400E93A76D0E9BA0
:1037F000FB1AAB422EDC139B9E4237DC2368DB07AF
:1038000034D4139DF31B751B9D4200DD1D00002D5C
:1038100035DCEB430027DB171D400C95139B0C9AFE
:10382000F31A9B1ABB4200DC82E7220001230A99AB
:1038300009980B9D1A32A847013000D1AAE601373A
:10384000ECE73B000C9A0A9909980B9DA8470130B8
:10385000C7D19FE6220001230A9909980B9F1A32CB
:10386000B847013000D195E60135BFE7109B0F9AAC
:103870000A9909980B9DA8470130C2D18AE60C9B92
:103880000A99DA1909982B000B9FB8470130C0D16B
:1038900080E6149E012E02DC01231A4239D0012356
:1038A0000C9A0A9909980B9FB847013000D171E62C
:1038B000109B0F9A0A9909980B9FB847013000D1C5
:1038C00068E6A06CE16C731E0E930022002302F0E8
:1038D000DDFF00281BD10C9A0E9B01320A99099832
:1038E0000B9EB04701300ED154E6220001230A9905
:1038F00009980B9E1A32B047013000D14AE60137D1
:103900000E9B9F42F1DB22002B005032E0E60027A5
:10391000F6E70C9AE2E7220001230A9909980B9E28
:103920001932B047013000D134E60135E368159A09
:103930009B1AAB42EFDCFFE60025F7E7F7B5160070
:1039400001938A680B690C000090934200DA13001F
:103950002200336043321278002A01D001333360F1
:1039600023689B0602D5336802333360226806233E
:1039700015001D401A4227D0230043331B785A1EDE
:1039800093412268920630D4220001990098089D44
:103990004332A847013025D0062223680025134072
:1039A000042B05D13368E568ED1AEB43DB171D40A6
:1039B000A3682269934201DD9B1AED180026B542E7
:1039C00020D1002010E00135E36832689B1AAB4239
:1039D000D2DD2200012301990098089F1932B847CF
:1039E0000130F0D101204042FEBD3020E1184331CA
:1039F000087021005A1C45310978A218433202335D
:103A00001170C1E72200012301990098089F1A3222
:103A1000B8470130E6D00136D1E70000F0B58BB0F1
:103A20000793059006920A7E0C004331109B039188
:103A3000782A09D8622A0BD8002A00D1BAE07A493C
:103A40000491582A00D18EE0250042352A7022E0E8
:103A5000100063381528F7D802F0FEFE16001F008C
:103A6000F6FFF6FFF6FFF6FF1F00F6FFF6FFF6FF84
:103A7000F6FF9F0035007E00F6FFF6FFB000F6FF70
:103A80003500F6FFF6FF820025001A684235111D49
:103A9000196013682B7001239EE01A682068111DBD
:103AA0001960050601D5166803E04006FBD5002322
:103AB000D65E002E03DA2D23039A764213705A4BFA
:103AC0000A27049313E01A68216840CA080602D442
:103AD000490600D5B6B21A60237E534A0A270492DB
:103AE0006F2B00D1023F2300002243331A7063681A
:103AF000A360002B06DB04212268039D8A43226019
:103B000033430CD0039D30003900FFF721FC049BA8
:103B1000013D5B5C2B70330006009F42F3D9082FF8
:103B200009D12368DB0706D5626823699A4202DC63
:103B30003023013D2B70039B5B1B2361079B2100FE
:103B400000930598069B09AAFFF7F8FE013048D1BB
:103B5000012040420BB0F0BD202221680A432260C0
:103B6000782232490491210045310A70196822688F
:103B700040C9100602D4500600D5B6B21960D3076A
:103B800002D5202313432360002E01D01027AAE77B
:103B90002022236893432360F8E71A682568101DE4
:103BA0006169186013682E0601D5196002E06D0680
:103BB000FBD519800023039D2361BFE71A68111DFF
:103BC0001960156800212800626800F083F9002858
:103BD00001D0401B6060636823610023039A137067
:103BE000ACE72A00236906990598079DA84701308C
:103BF000AED023689B0715D4099BE0689842A9DAE8
:103C00001800A7E72200012306990598079E19329C
:103C1000B04701309CD00135E368099A9B1AAB424A
:103C2000F0DCE9E70025F7E7966D0008A76D0008CE
:103C30000EB403B503AB04CB8168019301F00CFE15
:103C400002B008BC03B018470FB407B5054904AB70
:103C5000086804CB8168019301F0FEFD03B008BC45
:103C600004B018470400002010B5826802F0EDFA95
:103C700010BD000010B5034B01001868826802F007
:103C8000E4FA10BD04000020036A70B505000E00C0
:103C90008468002B01D102F0C5F8636EDB0705D400
:103CA000A3899B0502D4A06D00F00DF9A3891B0721
:103CB00002D52369002B1ED12100280000F090F8C6
:103CC000002818D001256D42636EDB0705D4A38957
:103CD0009B0502D4A06D00F0FCF8280070BD002BFD
:103CE00004DAA269934217DB0A2915D023685A1C0B
:103CF000226019700136A3683178013BA360002966
:103D0000EDD18B420FDA220028000A3100F01CF8B6
:103D10000130D7D00A25D7E72200280000F014F898
:103D20000130E7D1CEE723685A1C22600A221A70BC
:103D3000F0E7000010B5034B01001868FFF7A4FF7F
:103D400010BDC04604000020F8B505000F001400A7
:103D5000002804D0036A002B01D102F063F8A369A4
:103D6000A360A3891B0702D52369002B09D1210079
:103D7000280000F035F8002803D0012676423000F4
:103D8000F8BD23692068C01A6369834205DC2100FD
:103D9000280001F005FF0028EFD1A3680130013BA6
:103DA000A3602368FEB25A1C22601F7063698342BD
:103DB00004D0A389DB07E2D50A2EE0D12100280038
:103DC00001F0EEFE0028DAD0D7E7000010B5034B73
:103DD0000A0001001868FFF7B7FF10BD04000020BB
:103DE0002C4B70B5050018680C00002804D0036A3D
:103DF000002B01D102F016F80C22A35E1A0721D481
:103E0000DA0607D409222A60402201201343A38145
:103E1000404238E05A0712D5616B002908D02300D0
:103E20004433994202D0280000F0D6FE0023636399
:103E30002422A3899343002262602269226008221F
:103E40001343A3812369002B0BD1A0238022A189D6
:103E50009B0092000B40934203D02100280002F007
:103E6000BBF90C22A35E01211A000A400B420BD0C1
:103E70000022A26062695242A2610020226982424D
:103E800001D11A06C0D470BD990700D46269A2603E
:103E9000F3E7C0460400002003008218934200D1DB
:103EA000704719700133F9E7F030704700487047E8
:103EB00050010020004870475001002070477047B3
:103EC0007047704770477047012070470120704766
:103ED00070477047C9B28218904201D100207047E4
:103EE00003788B42FBD00130F6E70023C25C01333C
:103EF000002AFBD1581E7047F0B502690F6987B0E0
:103F000006000B0000200291BA426DDB013FBC00AD
:103F1000143305931B190393330014331C190193B5
:103F200023680493039B04981D6801352900FFF75B
:103F300089F9049B0090AB422BD3059B019D9C46C5
:103F4000002305930493624608CA28689446009AA1
:103F500099B25143059A1B0C8918009A53430A0CD5
:103F60009B181A0C89B2059282B2521A0499000C5D
:103F700052189BB21114C31A5B18191492B21B0485
:103F8000134308C5039B04916345DCD22368002BCF
:103F900030D03000029901F017FA002823DB3400FA
:103FA0000025009B029A01330093143414322368D5
:103FB00001CA02936B461B8981B2591A029B4919A7
:103FC000000C1B0C1B1A08141B181D1489B21B04AF
:103FD0000B4308C4039B9342E9D2019ABB00D31858
:103FE0001A68002A10D0009807B0F0BD2368002B93
:103FF00004D1013F019B043CA342F7D33761C8E7DA
:104000001A68002A04D1013F019A043B9A42F7D36F
:104010003761E8E7F0B514001D00C2699DB0109447
:104020001195259F0290002A10D1102000F01EFE4D
:10403000029B021ED86104D1EF21A34BA34802F0DA
:1040400071FA0023436083600360C3601168002934
:104050000BD001235268029893404A608B6000F0B5
:104060000DFF0022029BDB691A602E1E17DA012366
:104070006E00DE403B601196954B954A334093426B
:1040800018D1944B249A3603360B1360264301D182
:1040900000F073FD269B002B04D18F4B20E0002302
:1040A0003B60E9E78C4B05938C4B269A136005988F
:1040B0001DB0F0BD109A119B0C920D930C980D99A8
:1040C0000022002302F0E2FB071E0BD00123249AFA
:1040D0001360269B002B02D0814B269A1360814BE4
:1040E0000593E4E71AAB01931BAB009302980C9A7B
:1040F0000D9B01F091FA1A9B0490310D0593B94282
:1041000079D00D9B19971A03774B120B1343774AFB
:104110008E180C980D9919000022754BFEF71CFCA7
:10412000744A754BFEF760F9744A754BFDF730FA27
:10413000040030000D00FFF751F8724A724BFEF791
:1041400053F902000B0020002900FDF721FA0400BA
:104150000D00FFF70BF80022039000232000290038
:1041600002F09AFB00280BD00398FFF737F82B00DA
:10417000220002F08BFB43425841039B1B1A03931E
:1041800001231393039B162B0FD80C980D99039AB8
:104190005E4BD2009B180CCB02F07EFB002846D071
:1041A000039B013B039300231393059B9E1B00235A
:1041B0000693731E03D50122931B069300230A93D3
:1041C000039B002B35DB0A9B039A9B180A93002361
:1041D00012920E93229B0124092B5FD8052B02DD3E
:1041E0000024043B2293229B981E032860D802F0EF
:1041F00029FB51533529059B1B9FDF19444BFA18A6
:10420000202A0FDD40239B1A9E40424B3000FB18B2
:10421000DC40204302F0A6FC01223F4B7E1ECB185F
:10422000199278E7202320009B1A9840F2E7139018
:10423000BBE7069B039A9B1A069353420E930023F7
:104240001293C7E70123239A0F93039B9B180B93A9
:1042500001330893002B08DC012306E001230F93B0
:10426000239B002B28DD0B930893029A0021D06931
:104270000422150014359D4223D94160029800F0B4
:10428000BBFD059000284BD1B021244B0F48059A67
:10429000FF31D4E60023E2E70023D4E700230F94A4
:1042A0002293013B00220B93089323921333DCE704
:1042B00001230F93023BF5E701230B93089323930C
:1042C000D3E701315200D4E7C56D0008DC6D00086A
:1042D0000000F07F0F270000C16D0008C46D0008CA
:1042E000956D0008946D00080000F03F01FCFFFF91
:1042F0000000F83F61436F63A787D23FB3C8608B6C
:10430000288AC63FFB799F501344D33F586F00085B
:104310003204000012040000000010FE376E000896
:10432000029B059ADB691A60089B0E2B00D981E07D
:10433000002C00D17EE0039B002B00DCCDE00F21A0
:10434000039ACD4B0A40D2009B18C0CB039B022599
:104350001C110C9A0D9B14921593039BDB050AD537
:10436000C64B0C401A6A5B6A0C980D99FDF724FD48
:10437000149015910135C14B0993002C00D09CE09D
:104380001498159932003B00FDF716FD06000F004A
:10439000139B002B00D1CAE0002230003900B84B3B
:1043A00002F07AFA002800D1C1E0089B002B00D16E
:1043B000BDE00B9B002B3DDD039B3000013B390032
:1043C00009930022AF4BFEF70FF806000F000B9C7D
:1043D00001352800FEF702FF32003B00FEF704F82B
:1043E0000022A94BFDF7D4F8A84B14901591CB18D7
:1043F0001593149A159B16921793002C00D09AE0EF
:10440000002230003900A24BFEF7A6FA169A179B3D
:1044100006000F0002F054FAA04200D0D1E2802042
:10442000159900060B18149A3000390002F034FA7E
:10443000A04225D11B9B002B00DA93E1039A0E2AA0
:1044400000DD8FE18C4BD2009B1818CB06930794AC
:10445000239B002B00DB1FE1089B002B00DD1BE1F1
:104460000ED1069807990022894BFDF7BDFF020087
:104470000B000C980D9902F019FA002800D1A3E264
:1044800000263700239B059CDB43099303970027F5
:104490003100029800F0F2FC039B002B00D1E0E019
:1044A000002F05D09F4203D03900029800F0E6FCAF
:1044B0000399029800F0E2FCD3E001231C4208D0EB
:1044C000ED18099B30000CCB3900FDF78DFF06007D
:1044D0000F00099B641008334EE7039B02250C9ED6
:1044E0000D9F002B00D153E70F225C422240624B0C
:1044F000D2009B1830000CCB3900FDF775FF060089
:104500000F005E4B24110993002C00D140E70123DA
:104510001C4208D0ED18099B30000CCB3900FDF788
:1045200063FF06000F00099B64100833EBE7039B51
:10453000089C09934DE7504B621ED2009B1803CB99
:10454000059BE31818930F9B002B49D002000B002A
:1045500000205049FDF730FC169A179BFEF7FCF936
:10456000059B14901591169339003000FEF7FEFD5F
:104570000500FEF733FE02000B0030003900FEF7A5
:10458000EBF9169B30355C1C1D70149A159B0600C8
:104590000F0002F081F9002863D132003B000020B7
:1045A0003749FEF7D9F9149A159B02F075F90028DE
:1045B00000D0BAE0189B9C4200D13BE714981599B3
:1045C0000022304BFDF710FF0022149015912D4B67
:1045D00030003900FDF708FF169406000F00C3E70E
:1045E000169A179BFDF700FF14901591059C390052
:1045F0003000FEF7BBFD0500FEF7F0FD0B000200EA
:1046000039003000FEF7A8F93035189B25700134C9
:1046100006000F00A34227D11498159900221D4BC4
:10462000FCF7B6FF02000B0030003900189C02F0C6
:1046300047F9002800D078E0149A159B002015490E
:10464000FEF78AF902000B003000390002F024F96D
:10465000002800D1EEE62300013C2278302AFAD06F
:104660001C00099B03934EE00022064BFDF7BCFEA5
:1046700006000F00BBE7C046586F0008306F000807
:104680000000F03F0000244000001C400000C0FC7F
:10469000000014400000E03F089F059E013FBF1945
:1046A000069A079B0C980D99FDF786FBFEF75EFDB9
:1046B0000500FEF793FD069A079BFDF795FE0200A5
:1046C0000B000C980D99FEF747F92A0033003032A1
:1046D000013634001A709F4237D102000B00FCF7FC
:1046E00057FF069A079B06000F0002F0E9F8002822
:1046F00019D1069A079B3000390002F0C7F800284C
:1047000001D0ED070FD40499029800F0B7FB002305
:104710002370039B249A01331360269B002B00D146
:10472000C5E41C60C3E4039B099323001C00013B08
:104730001A78392A06D1059A9A42F7D1099A013294
:104740000992302201321A708BE70022C54BFDF727
:104750004BFE002200230C900D9102F097F80028E8
:104760009ED0D0E70F9F0E9D069C002F14D0229A5A
:10477000012A00DDE3E0199A002A00D1D9E0BA4A03
:104780009B18069A0121D21806920A9A0298D31809
:104790000A9300F07BFC0700002C0ED00A9B002B34
:1047A0000BDD0A9A2300944200DD1300069AE41AF6
:1047B000D21A06920A9AD31A0A930E9B002B21D082
:1047C0000F9B002B00D1D2E0049E002D14D03900A5
:1047D0002A00029800F02AFD049A010007000298BE
:1047E00000F06AFC06000499029800F047FB0E9B5B
:1047F00004965B1B0E9305D031000E9A029800F0D0
:1048000015FD04900121029800F040FC129B060067
:10481000002B00D1BBE11A000100029800F006FD58
:10482000229B06000025012B16DC0025109BAB42C5
:104830000ED1119B1B03AB420AD18C4B119A134230
:1048400006D0069B0135013306930A9B01330A9378
:10485000129B0120002B08D0336903339B00F3180F
:10486000586800F0C1FB2023181A0A9B1F22181851
:1048700003001340104200D180E01B2B7ADC033A86
:10488000D31A069AE418D21806920A9AD3180A93F1
:10489000069B002B05DD1A000499029800F028FD04
:1048A00004900A9B002B05DD31001A00029800F0ED
:1048B0001FFD0600139B002B62D03100049800F00E
:1048C00083FD00285CDA039B0A22013B09930499CB
:1048D0000023029800F0F8FA0F9B0490002B00D1FF
:1048E0005CE1002339000A22029800F0EDFA0B9BEC
:1048F0000700002B4EDC229B022B47DD0B9B002B7D
:1049000000D0BFE5310005220B9B029800F0DCFAD5
:1049100006000100049800F057FD002800DCB1E516
:10492000059B059A5C1C31231370099B0133099385
:10493000ACE536231A9A0E9D9B1A069C21E7089B2C
:104940005D1E0E9BAB4208DB5D1B089B002BF4DA5F
:10495000069B089A9C1A002313E70E9B129AEB1AE7
:10496000D31812930E95069C0025089B09E70E9A12
:10497000049943E71C2B8BD02022D31A1C3380E7E9
:10498000039B0993089B0B93002BB4DD0F9B002B1B
:1049900000D107E1002C05DD39002200029800F06B
:1049A000A7FC07000397002D20D07968029800F03B
:1049B00023FA041E0CD122002D4B2E482E49FFF75E
:1049C0003EFB26003700ABE7039B089E0993F9E7FF
:1049D00039003A690C31023292000C3001F098FD36
:1049E00001222100029800F083FC0390059B0B9AA2
:1049F0000693013B9B1801220E93109B13400C93CE
:104A000031000498FFF778FA390005000A900498FD
:104A100000F0DAFC039A0B903100029800F0EEFCF3
:104A20000122C368040030350892002B04D1010034
:104A3000049800F0C9FC08902100029800F01EFACA
:104A4000069B229A5C1C089B13430C9A134315D1B6
:104A5000392D2ED00B9B002B01DD0A9D3135069B95
:104A60001D7015E500002440330400000000F07FB5
:104A7000376E0008DC6D0008EF0200000B9B002B76
:104A800004DB229A13430C9A13431DD1089B002B7D
:104A9000E5DD04990122029800F02AFC310004901F
:104AA00000F092FC002802DCD9D1EB07D7D5392DD4
:104AB000D3D1069A157023001C00013B1A78392ABD
:104AC00051D001321A70E3E4089B002B03DD392D2D
:104AD000EFD00135C3E7069B069A1D700E9B9342EB
:104AE0002CD000230A220499029800F0EDF9039BD0
:104AF00004909F4209D1390000230A22029800F055
:104B0000E3F90700039006947AE7390000230A22AC
:104B1000029800F0D9F9002307000A2203990298AD
:104B200000F0D2F90390EEE700240B9BA34200DDD6
:104B30005C1E03970027059B0133E41804990122AA
:104B4000029800F0D5FB3100049000F03DFC0028F5
:104B5000B1DC01D1ED07AED423001C00013B1A7873
:104B6000302AFAD094E4059A9A42A5D1099B059A75
:104B700001330993312313708AE4154B269A059368
:104B8000144BB24201D0FFF790FAFFF790FA229B44
:104B9000012B00DC49E60120129D66E60B9B002BF1
:104BA00000DCA8E6002431000498FFF7A5F9059B76
:104BB000303018550B9B01340500A342B4DD0023AF
:104BC0000A220499029800F07FF90490EBE7C046AE
:104BD000B86D0008C06D000870B50500002910D040
:104BE0000C1F2368002B00DAE418280000F0F4F80A
:104BF0001D4A1368002B05D163601460280000F083
:104C0000F3F870BDA34208D9206821188B42F3D174
:104C100019685B6809182160EEE71A005B68002BD1
:104C200001D0A342F9D911685018A0420BD12068D5
:104C30000918501811608342E0D118685B68411868
:104C400011605360DAE7A04202D90C232B60D5E74C
:104C5000206821188B4203D119685B68091821600C
:104C600063605460CAE7C046D003002010B5034B10
:104C70000100186800F030F810BDC04604000020A4
:104C800010B5034B01001868FFF7A6FF10BDC04622
:104C90000400002070B50F4C0E00216805000029AB
:104CA00002D101F005FC20603100280001F000FC79
:104CB000431C03D101246442200070BD0323C41CA3
:104CC0009C43A042F8D0211A280001F0F1FB0130EA
:104CD000F2D1EFE7CC030020F7B50322CB1C9343BE
:104CE000083305001F000C2B34D20C27B94233D8EF
:104CF000280000F071F8374E33681C00002C2FD1CB
:104D000039002800FFF7C6FF0400431C5FD1346858
:104D10000094009B002B4AD19C4252D0236828006B
:104D2000E3180099019301F0C3FB019B834248D132
:104D300023682800FF1A3900FFF7ACFF013040D08C
:104D40002368DB19236033685A68002A33D1009B3B
:104D5000336019E0002BC9DA0C232B600020FEBD64
:104D60002168C91B20D40B290AD9E2192760A34264
:104D700004D1326063681160536005E05A60F9E75E
:104D80006268A3420ED13260280000F02DF82000A6
:104D900007220B30231D9043C21A9842DFD01B1A02
:104DA000A350DCE75A60EFE723006468A6E7009CA5
:104DB00063680093ADE71A005B68A342FBD1002350
:104DC000DAE70C2328002B6000F00EF8C6E7076036
:104DD000DAE7C046D003002010B50248FFF773F8A9
:104DE00010BDC046C803002010B50248FFF771F897
:104DF00010BDC046C803002070B5C46905000E0090
:104E0000002C10D11020FFF731FF041EE86105D1FE
:104E100022006B21174B184801F084FB00234360EC
:104E200083600360C360E368002B0BD1212204215F
:104E3000280001F09AFBEB69E060DB68002B01D1F0
:104E4000002070BDB2009B181868002805D00268C9
:104E50001A6000230361C360F3E701210C00B44032
:104E6000621D2800920001F080FB0028E8D0466017
:104E70008460EEE7C56D0008486E000870B5C4692F
:104E800006000D00002C0FD11020FFF7EFFE0200EE
:104E9000F061A04204D18F21094B0A4801F042FB86
:104EA000446084600460C460002D07D0F3696A68C0
:104EB000DB6892009B181A682A601D6070BDC046AE
:104EC000C56D0008486E0008F7B50F0001900C0092
:104ED0001E0000200D6914373B68013099B2514320
:104EE0001B0C534389190E0C9B191E0C89B21B0411
:104EF0005B1808C78542EFDC002E22D0A368AB42C6
:104F000019DC616801980131FFF776FF071E05D1B2
:104F10003A00BA210C4B0D4801F004FB2100226934
:104F20000C31023292000C3001F0F2FA21000198AB
:104F3000FFF7A4FF3C002B1D9B00E31801355E60CA
:104F400025612000FEBDC046376E0008486E00088F
:104F5000F7B5060018000F0008300921019314006E
:104F6000FCF72AFA0123002183420ADB3000FFF715
:104F700043FF011E08D10A00194B1A48D33101F032
:104F8000D1FA5B000131EFE7089B43610123036124
:104F9000092C08DC3D0009240A352700019B9F42AB
:104FA00014DB0800FEBD3B0009331D0000933F19D0
:104FB0002B780A223000303BFFF786FF01350100D5
:104FC000BD42F5D1009B1D19083DE6E72B1BDB5DBB
:104FD0000A223000303BFFF777FF01370100DDE7A1
:104FE000376E0008486E000880220300520200203D
:104FF000934201D21B04103080225204934201D20A
:1050000008301B0280225205934201D204301B015A
:105010008022D205934201D202309B00002B03DB99
:105020000130134200D1202070470368010007229D
:10503000180010B5104013420DD001240020234267
:1050400005D10230034203D0E34020000B6010BDC5
:105050009B080B60FBE79AB2002A01D110201B0CC1
:10506000DAB2002A01D108301B0A1A0701D1043034
:105070001B099A0701D102309B08DA07E9D45B08C3
:1050800001D00130E5E72020E1E7000010B50C0079
:105090000121FFF7B1FE002806D146210200044B92
:1050A0000448FF3101F03EFA01234461036110BD61
:1050B000376E0008486E0008F0B50D6916690F00DC
:1050C00014008BB0B54204DB33000C002E00170037
:1050D0001D0073190293A36872196168934200DA84
:1050E0000131FFF789FE0190002806D1B1214D4B17
:1050F0004D48019A490001F015FA019B0022143332
:105100009C4673199B0063440393634603998B4247
:1051100028D32300B600143314370693AD009B192F
:1051200004937B19099323000022049815339842B5
:105130005241031B153B9B08009707920893009B65
:10514000099A934210D3029B002B05DD039B043B7D
:1051500003931B68002B60D0019B029A18001A6110
:105160000BB0F0BD04C3D1E7009B186880B20028E3
:1051700023D067460025069E02CE3B6805938BB27E
:1051800043431A006B46090C9B8A4143D318059A86
:105190005B19120C89181A0C8A189BB2150C120490
:1051A0001A43049B04C7B342E6D80023079A9A42E5
:1051B00001D0089B9B0063445D60009B1868000C55
:1051C00025D063461A68250066461100002714356D
:1051D0002B68090C9BB24343DB195B18190492B28C
:1051E0001143316080CD71683F0C47438AB2BA18D1
:1051F0001B0CD218049B170C0436AB42E8D80023D2
:105200000799994201D0089B9B0063445A60009B18
:105210000433009304239C4491E7029B013B0293D7
:1052200091E7C046376E0008486E0008F7B50323C3
:10523000150007000C001A401D4208D02849013A09
:105240009200525800232100FFF73EFE0400AB10ED
:10525000019342D0FD69002D11D11020FFF706FD0A
:10526000051EF86106D1B4212A001E4B1E48FF31ED
:1052700001F058F90023436083600360C360AE68A7
:10528000002E07D138001949FFF700FF0023060060
:10529000A86003600122019B25001340019A52106F
:1052A0000192002B0CD0210032003800FFF704FFE0
:1052B000290004003800FFF7E1FD019B002B0CD012
:1052C0003068002807D1320031003800FFF7F4FEC3
:1052D0000023306003600600DCE72000FEBDC0460E
:1052E000FC6E0008C56D0008486E000871020000E1
:1052F000F0B50C0016002369571187B0FB18029314
:10530000013301934968A3680390019A934210DB2B
:105310000398FFF771FD0023020005001900143205
:1053200098420CD1DF312A00254B2648FF3101F08D
:10533000F9F801315B00E8E7980011500133BB42F6
:10534000FADBFB43DB171F40BF002300D2191F20ED
:105350003700216914338900059259180740064225
:1053600028D00130C01B049000201E689446BE4027
:1053700006436046066001CB049E0432F040994229
:10538000F3D8220015320023914203D30B1B153BA7
:105390009B089B00059AD3185860002801D1029BF6
:1053A0000193019B039821002B61FFF767FD280003
:1053B00007B0F0BD40CB166004329942FAD8EEE750
:1053C000376E0008486E000830B50B6904690200AA
:1053D000E01A9C420ED19B0014321431D418C91823
:1053E000043C043925680B689D4204D001209D428D
:1053F00000D2023830BDA242F2D3FBE7F0B50C0078
:1054000087B00090110020001700FFF7DDFF051E98
:1054100011D101000098FFF7EFFC0200A84204D16F
:10542000434B4448444901F07DF801234561036141
:10543000100007B0F0BD0026B04203DA23003C00A4
:105440001F00013661680098FFF7D6FC021E03D1E9
:10545000374B38483949E6E72369143400939B00F9
:10546000E318019314239C463B69BC449B006344AE
:1054700002930300C6600020143303930593049441
:105480006146049B20CB049308C9AEB28C4699B206
:10549000711A09182D0C1B0C0814EB1A1B18181480
:1054A00089B21B041943059B02C30593029B634504
:1054B000E6D83B00029D153300219D4203D3EB1B30
:1054C000153B9B089900039B5B1861180E1D350066
:1054D00004330293039B1B1B0393019B9D4211D337
:1054E000019801310023884203D3C31C9B1B9B08F6
:1054F0009B0002995B18043B1968002914D0009B9B
:10550000136195E7039B07009C46AC4408CD98B215
:10551000C01900141C0C0419DB1920149BB22404BC
:10552000234364462360D8E7009901390091E2E7FC
:10553000376E0008486E0008370200004502000080
:1055400010B500240C4B0D4A0B409B18A34206DCFF
:105550005B421A15132A05DC80231B031341190033
:10556000200010BD143A01241E2A02DC80242406E7
:10557000D4400023F3E7C0460000F07F0000C0FCE9
:10558000F7B50600036914369B00F3181D1F2C683D
:105590000F0020000193FFF727FD20231B1A1D4950
:1055A0003B600A2816DC0B2327001B1ADF40394317
:1055B0009C460B000021AE4202D2019908390968CD
:1055C0001530844060462700C1400F433800190061
:1055D00003B0F0BD0027AE4202D2019D083D2F6806
:1055E0000B235B429C4684440B2810D0634620204A
:1055F0009C40C01A3B00C3401C4321430B000021C8
:10560000B54201D9043D29686446A740DCE721433F
:105610000B00DBE70000F03FF7B5012116001F008B
:10562000FFF7EAFB041E05D12200254B2548264939
:1056300000F078FF3B037D001B0B6D0D02D0802234
:10564000520313430193002E25D068460096FFF7BE
:10565000ECFC009900281CD0019B20221E00121A8D
:1056600096403200C3400A4362610193019EA661E5
:10567000731E9E4101362661002D14D03526134B32
:10568000ED18089B2D181D60099B361A1E6020001E
:10569000FEBD6161EAE701A8FFF7C7FC019B012697
:1056A00063612030E7E70A4BC018089B1860094B7C
:1056B000F3189B00E3185869FFF796FC7601E3E7BF
:1056C000376E0008486E00080F030000CDFBFFFF97
:1056D000CEFBFFFFFFFFFF3FF0B585B00F0002A933
:1056E0000600FFF74DFF04000D00380003A90094E9
:1056F0000195FFF745FF36690200B4463E696746EB
:10570000BE1B7601B446039F029E0B00F61B664447
:105710003705002E07DD7919019100980199FCF7F2
:105720004BFB05B0F0BDCB1BF7E7000010B5040044
:10573000172804DC074BC4001B1903CB10BD002045
:1057400005490022054B013CFCF74EFE002CF8D128
:10575000F4E7C046586F00080000F03F0000244006
:1057600070B5140005000139136949110131890030
:1057700014349B004118E318A3420DD814001134CF
:105780000025A34203D39B1A113B9B089D000023D5
:105790004019884203D370BD40CC40C5ECE708C037
:1057A000F7E70200006910B514324B11984213DB81
:1057B0000CDD1F2408002040214207D099008C589E
:1057C0002100C140814001208C4204D19B00D318AC
:1057D000934203D8002010BD0300F7E7043B19688B
:1057E0000029F5D00120F6E7936810B5013B9360DE
:1057F000002B04DA9469A34207DB0A2905D0136859
:10580000581C10601970080010BDFEF79DFA0100C9
:10581000F9E7F8B506000F001400D518AC4201D125
:10582000002007E021783A003000FFF7DDFF013467
:10583000431CF3D1F8BD002310B5140092689A42BE
:1058400005D0220000F022FB00220300A26000220B
:105850001800626010BD0000F0B59FB00E00170088
:105860001C000290002804D0036A002B01D100F034
:10587000D9FA736EDB0705D4B3899B0502D4B06DEA
:10588000FEF721FBB3891B0702D53369002B13D127
:1058900031000298FEF7A4FA00280DD0736EDB07E2
:1058A00003D5012040421FB0F0BDB3899B05F8D459
:1058B000B06DFEF70EFBF4E7002306AD6B612033FD
:1058C0006B761033AB7605943C002378002B01D027
:1058D000252B43D1E31B0393BC420BD03A0031008C
:1058E0000298FFF796FF013000D1A4E06B69039A9C
:1058F0009B186B612378002B00D19CE001220023D0
:1059000052426A6002AA533201342B60EB60AB60F2
:105910001370AB65544F052221783800FEF7DAFA90
:105920002A68611C00281BD1D30603D520235327E6
:1059300002A8C355130703D52B23532702A8C35529
:1059400023782A2B13D000200A21EB682278303AE2
:10595000092A4FD9002812D0EB6010E00134B4E7D7
:105960000123C01B834013430C002B60D2E7059B2F
:10597000181D1B680590002B36DBEB600C002378AC
:105980002E2B0CD163782A2B39D1059B02341A1D9A
:105990001B680592002B01DA01235B426B60334FD9
:1059A000032238002178FEF795FA002806D040231C
:1059B000C01B83402A68013413432B6021780622E0
:1059C0002B482976FEF786FA002843D0294800287C
:1059D00027D10722059B07339343083305936B694F
:1059E000671C1B186B616FE75B42EB60022313437C
:1059F0002B60C3E74B43012001349B18A6E700232B
:105A00000A201A0001346B6021783039092903D942
:105A1000002BC4D06A60C2E742430123013452180C
:105A2000F2E705AA009229003200134B0298FDF715
:105A300059FD431CD3D1736EDB0705D4B3899B0595
:105A400002D4B06DFEF745FAB3895B0600D528E7AE
:105A5000686928E705AA009229003200064B0298DF
:105A6000FDF7DCFFE5E7C046A46E0008AA6E00085B
:105A7000AE6E0008E53400081358000810B5044C59
:105A800013000A0001002068FFF7E6FE10BDC046C3
:105A900004000020F7B50C228B5E05000C001A07ED
:105AA00057D44A68002A02DC0A6C002A4FDDE76AF4
:105AB000002F4CD0002280212E682A601A00490154
:105AC0000A400B4234D0626DA3895B0706D5636838
:105AD000D21A636B002B01D0236CD21A002328004A
